{"abi":[{"type":"constructor","inputs":[{"name":"_token","type":"address","internalType":"address"}],"stateMutability":"nonpayable"},{"type":"receive","stateMutability":"payable"},{"type":"function","name":"claimInterest","inputs":[],"outputs":[],"stateMutability":"nonpayable"},{"type":"function","name":"clearAllStakes","inputs":[],"outputs":[],"stateMutability":"nonpayable"},{"type":"function","name":"getAccruedInterest","inputs":[{"name":"user","type":"address","internalType":"address"}],"outputs":[{"name":"","type":"uint256","internalType":"uint256"}],"stateMutability":"view"},{"type":"function","name":"getStakeHolder","inputs":[{"name":"index","type":"uint256","internalType":"uint256"}],"outputs":[{"name":"","type":"address","internalType":"address"}],"stateMutability":"view"},{"type":"function","name":"getStakeHoldersCount","inputs":[],"outputs":[{"name":"","type":"uint256","internalType":"uint256"}],"stateMutability":"view"},{"type":"function","name":"getStakeItem","inputs":[],"outputs":[{"name":"createdAt","type":"uint256","internalType":"uint256"},{"name":"stakedAmount","type":"uint256","internalType":"uint256"}],"stateMutability":"view"},{"type":"function","name":"initializeTokenBalance","inputs":[{"name":"amount","type":"uint256","internalType":"uint256"}],"outputs":[],"stateMutability":"nonpayable"},{"type":"function","name":"owner","inputs":[],"outputs":[{"name":"","type":"address","internalType":"address"}],"stateMutability":"view"},{"type":"function","name":"redeem","inputs":[{"name":"amount","type":"uint256","internalType":"uint256"}],"outputs":[],"stateMutability":"nonpayable"},{"type":"function","name":"renounceOwnership","inputs":[],"outputs":[],"stateMutability":"nonpayable"},{"type":"function","name":"stake","inputs":[{"name":"amount","type":"uint256","internalType":"uint256"}],"outputs":[],"stateMutability":"nonpayable"},{"type":"function","name":"stakeHolders","inputs":[{"name":"","type":"uint256","internalType":"uint256"}],"outputs":[{"name":"","type":"address","internalType":"address"}],"stateMutability":"view"},{"type":"function","name":"stakes","inputs":[{"name":"","type":"address","internalType":"address"}],"outputs":[{"name":"createdAt","type":"uint256","internalType":"uint256"},{"name":"stakedAmount","type":"uint256","internalType":"uint256"}],"stateMutability":"view"},{"type":"function","name":"sweep","inputs":[],"outputs":[],"stateMutability":"nonpayable"},{"type":"function","name":"token","inputs":[],"outputs":[{"name":"","type":"address","internalType":"contract ERC20"}],"stateMutability":"view"},{"type":"function","name":"transferOwnership","inputs":[{"name":"newOwner","type":"address","internalType":"address"}],"outputs":[],"stateMutability":"nonpayable"},{"type":"event","name":"ClaimInterest","inputs":[{"name":"contributor","type":"address","indexed":true,"internalType":"address"},{"name":"rewards","type":"uint256","indexed":false,"internalType":"uint256"}],"anonymous":false},{"type":"event","name":"Deposit","inputs":[{"name":"sender","type":"address","indexed":true,"internalType":"address"},{"name":"amount","type":"uint256","indexed":false,"internalType":"uint256"}],"anonymous":false},{"type":"event","name":"OwnershipTransferred","inputs":[{"name":"previousOwner","type":"address","indexed":true,"internalType":"address"},{"name":"newOwner","type":"address","indexed":true,"internalType":"address"}],"anonymous":false},{"type":"event","name":"Redeem","inputs":[{"name":"contributor","type":"address","indexed":true,"internalType":"address"},{"name":"amount","type":"uint256","indexed":false,"internalType":"uint256"}],"anonymous":false},{"type":"event","name":"StakeTokens","inputs":[{"name":"contributor","type":"address","indexed":true,"internalType":"address"},{"name":"amount","type":"uint256","indexed":false,"internalType":"uint256"}],"anonymous":false},{"type":"event","name":"Sweep","inputs":[{"name":"amount","type":"uint256","indexed":false,"internalType":"uint256"}],"anonymous":false},{"type":"error","name":"DepositAmountZero","inputs":[]},{"type":"error","name":"IndexOutOfBounds","inputs":[]},{"type":"error","name":"InsufficientOwnerBalance","inputs":[]},{"type":"error","name":"InsufficientRedeemAmount","inputs":[]},{"type":"error","name":"InsufficientTokenAllowance","inputs":[]},{"type":"error","name":"InsufficientTokenBalance","inputs":[]},{"type":"error","name":"NoContributionToReward","inputs":[]},{"type":"error","name":"NoStakedTokens","inputs":[]},{"type":"error","name":"OnlyOwnerFunctional","inputs":[]},{"type":"error","name":"OwnableInvalidOwner","inputs":[{"name":"owner","type":"address","internalType":"address"}]},{"type":"error","name":"OwnableUnauthorizedAccount","inputs":[{"name":"account","type":"address","internalType":"address"}]},{"type":"error","name":"RedeemAmountZero","inputs":[]},{"type":"error","name":"RewardTransferFailed","inputs":[]},{"type":"error","name":"StakingAmountZero","inputs":[]},{"type":"error","name":"TransferFailed","inputs":[]}],"bytecode":{"object":"0x608060405234801561001057600080fd5b506040516111c83803806111c883398101604081905261002f916100d4565b338061005557604051631e4fbdf760e01b81526000600482015260240160405180910390fd5b61005e81610084565b50600380546001600160a01b0319166001600160a01b0392909216919091179055610104565b600080546001600160a01b038381166001600160a01b0319831681178455604051919092169283917f8be0079c531659141344cd1fd0a4f28419497f9722a3daafe3b4186f6b6457e09190a35050565b6000602082840312156100e657600080fd5b81516001600160a01b03811681146100fd57600080fd5b9392505050565b6110b5806101136000396000f3fe6080604052600436106100f75760003560e01c8063b622fa851161008a578063db006a7511610059578063db006a751461030d578063f2fde38b1461032d578063f99f55aa1461034d578063fc0c546a1461036d57600080fd5b8063b622fa851461027a578063bbf14e741461028f578063c6a0c668146102bd578063d24259f6146102d257600080fd5b8063715018a6116100c6578063715018a6146101f35780638da5cb5b14610208578063a694fc3a1461023a578063acad41a41461025a57600080fd5b806316934fc414610159578063231c8173146101a757806335981fd8146101c957806335faa416146101de57600080fd5b36610154573460000361011d57604051635d66204960e11b815260040160405180910390fd5b60405134815233907fe1fffcc4923d04b559f4d29a8bfc6cda04eb5b0d3c460751c2402c5c5cc9109c9060200160405180910390a2005b600080fd5b34801561016557600080fd5b5061018d610174366004610f61565b6001602081905260009182526040909120805491015482565b604080519283526020830191909152015b60405180910390f35b3480156101b357600080fd5b506101c76101c2366004610f8a565b61038d565b005b3480156101d557600080fd5b506101c7610451565b3480156101ea57600080fd5b506101c761048f565b3480156101ff57600080fd5b506101c76105f5565b34801561021457600080fd5b506000546001600160a01b03165b6040516001600160a01b03909116815260200161019e565b34801561024657600080fd5b506101c7610255366004610f8a565b610609565b34801561026657600080fd5b50610222610275366004610f8a565b6108a5565b34801561028657600080fd5b506101c76108cf565b34801561029b57600080fd5b506102af6102aa366004610f61565b61093d565b60405190815260200161019e565b3480156102c957600080fd5b506002546102af565b3480156102de57600080fd5b5061018d3360009081526001602081815260409283902083518085019094528054808552920154920182905291565b34801561031957600080fd5b506101c7610328366004610f8a565b6109a6565b34801561033957600080fd5b506101c7610348366004610f61565b610af8565b34801561035957600080fd5b50610222610368366004610f8a565b610b38565b34801561037957600080fd5b50600354610222906001600160a01b031681565b610395610b8b565b806000036103b65760405163332ab29360e01b815260040160405180910390fd5b6003546040516323b872dd60e01b8152336004820152306024820152604481018390526001600160a01b03909116906323b872dd906064016020604051808303816000875af115801561040d573d6000803e3d6000fd5b505050506040513d601f19601f820116820180604052508101906104319190610fa3565b61044e576040516312171d8360e31b815260040160405180910390fd5b50565b336000908152600160208190526040822090810154909103610486576040516368fb6e7560e01b815260040160405180910390fd5b61044e33610bb8565b610497610b8b565b6003546040516370a0823160e01b81523060048201526000916001600160a01b0316906370a0823190602401602060405180830381865afa1580156104e0573d6000803e3d6000fd5b505050506040513d601f19601f820116820180604052508101906105049190610fc5565b905061050e6108cf565b6003546001600160a01b031663a9059cbb6105316000546001600160a01b031690565b6040516001600160e01b031960e084901b1681526001600160a01b039091166004820152602481018490526044016020604051808303816000875af115801561057e573d6000803e3d6000fd5b505050506040513d601f19601f820116820180604052508101906105a29190610fa3565b6105bf576040516312171d8360e31b815260040160405180910390fd5b6040518181527ff2e5cfae4c990f32807a4db8277440db70d23f8157e11efeb28e0f8ed03b69929060200160405180910390a150565b6105fd610b8b565b6106076000610d57565b565b8060000361062a5760405163711fa83160e01b815260040160405180910390fd5b6003546040516370a0823160e01b815233600482015282916001600160a01b0316906370a0823190602401602060405180830381865afa158015610672573d6000803e3d6000fd5b505050506040513d601f19601f820116820180604052508101906106969190610fc5565b10156106b557604051637222ae5760e11b815260040160405180910390fd5b600354604051636eb1769f60e11b815233600482015230602482015282916001600160a01b03169063dd62ed3e90604401602060405180830381865afa158015610703573d6000803e3d6000fd5b505050506040513d601f19601f820116820180604052508101906107279190610fc5565b10156107465760405163a085b77b60e01b815260040160405180910390fd5b3360009081526001602081905260408220908101549091036107a557600280546001810182556000919091527f405787fa12a823e0f2b7631cc41b3ba8828b3321ca811111fa75cd3aa3bb5ace0180546001600160a01b031916331790555b6001810154156107b8576107b833610bb8565b6003546040516323b872dd60e01b8152336004820152306024820152604481018490526001600160a01b03909116906323b872dd906064016020604051808303816000875af115801561080f573d6000803e3d6000fd5b505050506040513d601f19601f820116820180604052508101906108339190610fa3565b610850576040516312171d8360e31b815260040160405180910390fd5b818160010160008282546108649190610ff4565b909155505042815560405182815233907feb564dbda54c69318a29599b8551d044674ca4e3c47f3c0da3f4f253c90b17029060200160405180910390a25050565b600281815481106108b557600080fd5b6000918252602090912001546001600160a01b0316905081565b6108d7610b8b565b60005b600254811015610930576000600282815481106108f9576108f9611007565b60009182526020808320909101546001600160a01b03168252600190819052604082208281558101919091559190910190506108da565b5061060760026000610f2f565b6001600160a01b038116600090815260016020818152604080842081518083019092528054825290920154908201819052820361098d57604051637ed4d00960e01b815260040160405180910390fd5b61099f81602001518260000151610da7565b9392505050565b806000036109c75760405163332ab29360e01b815260040160405180910390fd5b33600090815260016020819052604090912090810154808311156109fe57604051630397d7d760e11b815260040160405180910390fd5b82826001016000828254610a12919061101d565b90915550506001820154600003610a2c57610a2c33610e2e565b60035460405163a9059cbb60e01b8152336004820152602481018590526001600160a01b039091169063a9059cbb906044016020604051808303816000875af1158015610a7d573d6000803e3d6000fd5b505050506040513d601f19601f82011682018060405250810190610aa19190610fa3565b610abe576040516312171d8360e31b815260040160405180910390fd5b60405183815233907f222838db2794d11532d940e8dec38ae307ed0b63cd97c233322e221f998767a69060200160405180910390a2505050565b610b00610b8b565b6001600160a01b038116610b2f57604051631e4fbdf760e01b8152600060048201526024015b60405180910390fd5b61044e81610d57565b6002546000908210610b5d57604051634e23d03560e01b815260040160405180910390fd5b60028281548110610b7057610b70611007565b6000918252602090912001546001600160a01b031692915050565b6000546001600160a01b031633146106075760405163118cdaa760e01b8152336004820152602401610b26565b6001600160a01b03811660009081526001602081905260408220908101548154919291610be59190610da7565b90508015610d50576003546040516370a0823160e01b815230600482015282916001600160a01b0316906370a0823190602401602060405180830381865afa158015610c35573d6000803e3d6000fd5b505050506040513d601f19601f82011682018060405250810190610c599190610fc5565b1015610c785760405163f6e86ac560e01b815260040160405180910390fd5b60035460405163a9059cbb60e01b81526001600160a01b038581166004830152602482018490529091169063a9059cbb906044016020604051808303816000875af1158015610ccb573d6000803e3d6000fd5b505050506040513d601f19601f82011682018060405250810190610cef9190610fa3565b610d0c5760405163078ecf4160e41b815260040160405180910390fd5b826001600160a01b03167fbbf701f67a7d285bbd2b9b2dc7a5fee474e6dc3c059183385da6cc9de2be34a982604051610d4791815260200190565b60405180910390a25b5042905550565b600080546001600160a01b038381166001600160a01b0319831681178455604051919092169283917f8be0079c531659141344cd1fd0a4f28419497f9722a3daafe3b4186f6b6457e09190a35050565b600080610db4834261101d565b905062015180811015610dcb576000915050610e28565b62093a80811015610df5576064610de3856001611030565b610ded9190611047565b915050610e28565b62278d00811015610e0d576064610de385600a611030565b6064610e1a856032611030565b610e249190611047565b9150505b92915050565b60005b600254811015610f2b57816001600160a01b031660028281548110610e5857610e58611007565b6000918252602090912001546001600160a01b031603610f235760028054610e829060019061101d565b81548110610e9257610e92611007565b600091825260209091200154600280546001600160a01b039092169183908110610ebe57610ebe611007565b9060005260206000200160006101000a8154816001600160a01b0302191690836001600160a01b031602179055506002805480610efd57610efd611069565b600082815260209020810160001990810180546001600160a01b03191690550190555050565b600101610e31565b5050565b508054600082559060005260206000209081019061044e91905b80821115610f5d5760008155600101610f49565b5090565b600060208284031215610f7357600080fd5b81356001600160a01b038116811461099f57600080fd5b600060208284031215610f9c57600080fd5b5035919050565b600060208284031215610fb557600080fd5b8151801515811461099f57600080fd5b600060208284031215610fd757600080fd5b5051919050565b634e487b7160e01b600052601160045260246000fd5b80820180821115610e2857610e28610fde565b634e487b7160e01b600052603260045260246000fd5b81810381811115610e2857610e28610fde565b8082028115828204841417610e2857610e28610fde565b60008261106457634e487b7160e01b600052601260045260246000fd5b500490565b634e487b7160e01b600052603160045260246000fdfea264697066735822122097d439228ceaec7e427f4076b402ffaa714ad273fa69650eb43589a4d65f955864736f6c634300081a0033","linkReferences":{}},"methodIdentifiers":{"claimInterest()":"35981fd8","clearAllStakes()":"b622fa85","getAccruedInterest(address)":"bbf14e74","getStakeHolder(uint256)":"f99f55aa","getStakeHoldersCount()":"c6a0c668","getStakeItem()":"d24259f6","initializeTokenBalance(uint256)":"231c8173","owner()":"8da5cb5b","redeem(uint256)":"db006a75","renounceOwnership()":"715018a6","stake(uint256)":"a694fc3a","stakeHolders(uint256)":"acad41a4","stakes(address)":"16934fc4","sweep()":"35faa416","token()":"fc0c546a","transferOwnership(address)":"f2fde38b"},"id":31}