{"abi":[{"type":"constructor","inputs":[{"name":"_tokenAddress","type":"address","internalType":"address"},{"name":"_tokenSalePrice","type":"uint256","internalType":"uint256"}],"stateMutability":"nonpayable"},{"type":"function","name":"buyToken","inputs":[{"name":"_tokenAmount","type":"uint256","internalType":"uint256"}],"outputs":[],"stateMutability":"payable"},{"type":"function","name":"owner","inputs":[],"outputs":[{"name":"","type":"address","internalType":"address"}],"stateMutability":"view"},{"type":"function","name":"sellToken","inputs":[{"name":"_tokenAmount","type":"uint256","internalType":"uint256"}],"outputs":[],"stateMutability":"nonpayable"},{"type":"function","name":"soldTokens","inputs":[],"outputs":[{"name":"","type":"uint256","internalType":"uint256"}],"stateMutability":"view"},{"type":"function","name":"tokenAddress","inputs":[],"outputs":[{"name":"","type":"address","internalType":"address"}],"stateMutability":"view"},{"type":"function","name":"tokenSalePrice","inputs":[],"outputs":[{"name":"","type":"uint256","internalType":"uint256"}],"stateMutability":"view"},{"type":"function","name":"withdrawAllETH","inputs":[],"outputs":[],"stateMutability":"nonpayable"},{"type":"function","name":"withdrawETH","inputs":[{"name":"amount","type":"uint256","internalType":"uint256"}],"outputs":[],"stateMutability":"nonpayable"}],"bytecode":{"object":"0x6080604052348015600f57600080fd5b50604051610b90380380610b90833981016040819052602c916062565b60008054336001600160a01b031991821617909155600180549091166001600160a01b039390931692909217909155600255609a565b60008060408385031215607457600080fd5b82516001600160a01b0381168114608a57600080fd5b6020939093015192949293505050565b610ae7806100a96000396000f3fe60806040526004361061007b5760003560e01c806390386bbf1161004e57806390386bbf146101165780639d76ea581461012b578063e86790eb1461014b578063f14210a61461016157600080fd5b80632397e4d7146100805780632d296bf1146100a25780635ed9ebfc146100b55780638da5cb5b146100de575b600080fd5b34801561008c57600080fd5b506100a061009b3660046108b9565b610181565b005b6100a06100b03660046108b9565b6104e4565b3480156100c157600080fd5b506100cb60035481565b6040519081526020015b60405180910390f35b3480156100ea57600080fd5b506000546100fe906001600160a01b031681565b6040516001600160a01b0390911681526020016100d5565b34801561012257600080fd5b506100a0610795565b34801561013757600080fd5b506001546100fe906001600160a01b031681565b34801561015757600080fd5b506100cb60025481565b34801561016d57600080fd5b506100a061017c3660046108b9565b61083f565b6001546040805163313ce56760e01b815290516001600160a01b0390921691600091839163313ce567916004808201926020929091908290030181865afa1580156101d0573d6000803e3d6000fd5b505050506040513d601f19601f820116820180604052508101906101f491906108d2565b6101ff90600a6109fb565b6102099084610a0a565b905060006002548461021b9190610a0a565b6040516370a0823160e01b815233600482015290915082906001600160a01b038516906370a0823190602401602060405180830381865afa158015610264573d6000803e3d6000fd5b505050506040513d601f19601f820116820180604052508101906102889190610a21565b10156102db5760405162461bcd60e51b815260206004820152601a60248201527f496e73756666696369656e7420746f6b656e2062616c616e636500000000000060448201526064015b60405180910390fd5b604051636eb1769f60e11b815233600482015230602482015282906001600160a01b0385169063dd62ed3e90604401602060405180830381865afa158015610327573d6000803e3d6000fd5b505050506040513d601f19601f8201168201806040525081019061034b9190610a21565b10156103995760405162461bcd60e51b815260206004820152601c60248201527f496e73756666696369656e7420746f6b656e20616c6c6f77616e63650000000060448201526064016102d2565b804710156103f55760405162461bcd60e51b8152602060048201526024808201527f496e73756666696369656e74204554482062616c616e636520696e20636f6e746044820152631c9858dd60e21b60648201526084016102d2565b6040516323b872dd60e01b8152336004820152306024820152604481018390526001600160a01b038416906323b872dd906064016020604051808303816000875af1158015610448573d6000803e3d6000fd5b505050506040513d601f19601f8201168201806040525081019061046c9190610a3a565b6104b05760405162461bcd60e51b8152602060048201526015602482015274151bdad95b881d1c985b9cd9995c8819985a5b1959605a1b60448201526064016102d2565b604051339082156108fc029083906000818181858888f193505050501580156104dd573d6000803e3d6000fd5b5050505050565b6000600254826104f49190610a0a565b90508034146105455760405162461bcd60e51b815260206004820152601960248201527f496e636f72726563742045544820616d6f756e742073656e740000000000000060448201526064016102d2565b6001546040805163313ce56760e01b815290516001600160a01b0390921691600091839163313ce567916004808201926020929091908290030181865afa158015610594573d6000803e3d6000fd5b505050506040513d601f19601f820116820180604052508101906105b891906108d2565b6105c390600a6109fb565b6105cd9085610a0a565b6040516370a0823160e01b815230600482015290915081906001600160a01b038416906370a0823190602401602060405180830381865afa158015610616573d6000803e3d6000fd5b505050506040513d601f19601f8201168201806040525081019061063a9190610a21565b10156106885760405162461bcd60e51b815260206004820152601d60248201527f496e73756666696369656e7420746f6b656e7320617661696c61626c6500000060448201526064016102d2565b60405163a9059cbb60e01b8152336004820152602481018290526001600160a01b0383169063a9059cbb906044016020604051808303816000875af11580156106d5573d6000803e3d6000fd5b505050506040513d601f19601f820116820180604052508101906106f99190610a3a565b61073d5760405162461bcd60e51b8152602060048201526015602482015274151bdad95b881d1c985b9cd9995c8819985a5b1959605a1b60448201526064016102d2565b600080546040516001600160a01b03909116913480156108fc02929091818181858888f19350505050158015610777573d6000803e3d6000fd5b50836003600082825461078a9190610a5c565b909155505050505050565b6000546001600160a01b031633146107bf5760405162461bcd60e51b81526004016102d290610a6f565b47806108025760405162461bcd60e51b81526020600482015260126024820152714e6f2045544820746f20776974686472617760701b60448201526064016102d2565b600080546040516001600160a01b039091169183156108fc02918491818181858888f1935050505015801561083b573d6000803e3d6000fd5b5050565b6000546001600160a01b031633146108695760405162461bcd60e51b81526004016102d290610a6f565b804710156108025760405162461bcd60e51b815260206004820152601860248201527f496e73756666696369656e74204554482062616c616e6365000000000000000060448201526064016102d2565b6000602082840312156108cb57600080fd5b5035919050565b6000602082840312156108e457600080fd5b815160ff811681146108f557600080fd5b9392505050565b634e487b7160e01b600052601160045260246000fd5b6001815b600184111561094d57808504811115610931576109316108fc565b600184161561093f57908102905b60019390931c928002610916565b935093915050565b600082610964575060016109f5565b81610971575060006109f5565b81600181146109875760028114610991576109ad565b60019150506109f5565b60ff8411156109a2576109a26108fc565b50506001821b6109f5565b5060208310610133831016604e8410600b84101617156109d0575081810a6109f5565b6109dd6000198484610912565b80600019048211156109f1576109f16108fc565b0290505b92915050565b60006108f560ff841683610955565b80820281158282048414176109f5576109f56108fc565b600060208284031215610a3357600080fd5b5051919050565b600060208284031215610a4c57600080fd5b815180151581146108f557600080fd5b808201808211156109f5576109f56108fc565b60208082526022908201527f4f6e6c79206f776e65722063616e20706572666f726d2074686973206163746960408201526137b760f11b60608201526080019056fea264697066735822122016803b148b7f784eb5ea0ed2801b60021121fb01bd7107725e249d65ab8bc1c264736f6c634300081a0033","linkReferences":{}},"methodIdentifiers":{"buyToken(uint256)":"2d296bf1","owner()":"8da5cb5b","sellToken(uint256)":"2397e4d7","soldTokens()":"5ed9ebfc","tokenAddress()":"9d76ea58","tokenSalePrice()":"e86790eb","withdrawAllETH()":"90386bbf","withdrawETH(uint256)":"f14210a6"},"id":28}