{"abi":[{"type":"constructor","inputs":[],"stateMutability":"nonpayable"},{"type":"function","name":"allInvestorList","inputs":[],"outputs":[{"name":"","type":"address[]","internalType":"address[]"}],"stateMutability":"view"},{"type":"function","name":"availableFunds","inputs":[],"outputs":[{"name":"","type":"uint256","internalType":"uint256"}],"stateMutability":"view"},{"type":"function","name":"contribution","inputs":[],"outputs":[],"stateMutability":"payable"},{"type":"function","name":"contributionTimeEnd","inputs":[],"outputs":[{"name":"","type":"uint256","internalType":"uint256"}],"stateMutability":"view"},{"type":"function","name":"createProposal","inputs":[{"name":"description","type":"string","internalType":"string"},{"name":"amount","type":"uint256","internalType":"uint256"},{"name":"recipient","type":"address","internalType":"address payable"}],"outputs":[],"stateMutability":"nonpayable"},{"type":"function","name":"executeProposal","inputs":[{"name":"proposalId","type":"uint256","internalType":"uint256"}],"outputs":[],"stateMutability":"nonpayable"},{"type":"function","name":"initializeDAO","inputs":[{"name":"_contributionTimeEnd","type":"uint256","internalType":"uint256"},{"name":"_voteTime","type":"uint256","internalType":"uint256"},{"name":"_quorum","type":"uint256","internalType":"uint256"}],"outputs":[],"stateMutability":"nonpayable"},{"type":"function","name":"investors","inputs":[{"name":"","type":"uint256","internalType":"uint256"}],"outputs":[{"name":"","type":"address","internalType":"address"}],"stateMutability":"view"},{"type":"function","name":"owner","inputs":[],"outputs":[{"name":"","type":"address","internalType":"address"}],"stateMutability":"view"},{"type":"function","name":"proposalCount","inputs":[],"outputs":[{"name":"","type":"uint256","internalType":"uint256"}],"stateMutability":"view"},{"type":"function","name":"proposalList","inputs":[],"outputs":[{"name":"descriptions","type":"string[]","internalType":"string[]"},{"name":"amounts","type":"uint256[]","internalType":"uint256[]"},{"name":"recipients","type":"address[]","internalType":"address[]"}],"stateMutability":"view"},{"type":"function","name":"proposals","inputs":[{"name":"","type":"uint256","internalType":"uint256"}],"outputs":[{"name":"description","type":"string","internalType":"string"},{"name":"amount","type":"uint256","internalType":"uint256"},{"name":"recipient","type":"address","internalType":"address payable"},{"name":"voteCount","type":"uint256","internalType":"uint256"},{"name":"executed","type":"bool","internalType":"bool"}],"stateMutability":"view"},{"type":"function","name":"quorum","inputs":[],"outputs":[{"name":"","type":"uint256","internalType":"uint256"}],"stateMutability":"view"},{"type":"function","name":"reedemShare","inputs":[{"name":"amount","type":"uint256","internalType":"uint256"}],"outputs":[],"stateMutability":"nonpayable"},{"type":"function","name":"shares","inputs":[{"name":"","type":"address","internalType":"address"}],"outputs":[{"name":"","type":"uint256","internalType":"uint256"}],"stateMutability":"view"},{"type":"function","name":"totalShares","inputs":[],"outputs":[{"name":"","type":"uint256","internalType":"uint256"}],"stateMutability":"view"},{"type":"function","name":"transferShare","inputs":[{"name":"amount","type":"uint256","internalType":"uint256"},{"name":"to","type":"address","internalType":"address"}],"outputs":[],"stateMutability":"nonpayable"},{"type":"function","name":"voteProposal","inputs":[{"name":"proposalId","type":"uint256","internalType":"uint256"}],"outputs":[],"stateMutability":"nonpayable"},{"type":"function","name":"voteTime","inputs":[],"outputs":[{"name":"","type":"uint256","internalType":"uint256"}],"stateMutability":"view"},{"type":"event","name":"Conribution","inputs":[{"name":"user","type":"address","indexed":true,"internalType":"address"},{"name":"amount","type":"uint256","indexed":false,"internalType":"uint256"}],"anonymous":false},{"type":"event","name":"ProposalCreated","inputs":[{"name":"proposalId","type":"uint256","indexed":true,"internalType":"uint256"},{"name":"description","type":"string","indexed":false,"internalType":"string"},{"name":"amount","type":"uint256","indexed":false,"internalType":"uint256"},{"name":"recipient","type":"address","indexed":false,"internalType":"address"}],"anonymous":false},{"type":"event","name":"ProposalExecuted","inputs":[{"name":"proposalId","type":"uint256","indexed":true,"internalType":"uint256"}],"anonymous":false},{"type":"event","name":"ReedemShare","inputs":[{"name":"user","type":"address","indexed":true,"internalType":"address"},{"name":"amount","type":"uint256","indexed":false,"internalType":"uint256"}],"anonymous":false},{"type":"event","name":"TransferShare","inputs":[{"name":"from","type":"address","indexed":true,"internalType":"address"},{"name":"to","type":"address","indexed":true,"internalType":"address"},{"name":"amount","type":"uint256","indexed":false,"internalType":"uint256"}],"anonymous":false},{"type":"event","name":"VoteCast","inputs":[{"name":"voter","type":"address","indexed":true,"internalType":"address"},{"name":"proposalId","type":"uint256","indexed":true,"internalType":"uint256"},{"name":"weight","type":"uint256","indexed":false,"internalType":"uint256"}],"anonymous":false}],"bytecode":{"object":"0x608060405234801561001057600080fd5b50600080546001600160a01b0319163317905561179d806100326000396000f3fe6080604052600436106101145760003560e01c806350520b1f116100a0578063afc8275b11610064578063afc8275b146102eb578063bcf93dd614610301578063c1188cff14610317578063ce7c2ac214610337578063da35c6641461036457600080fd5b806350520b1f146102635780636ac1e01f1461026b578063807896d51461028b578063861e1a30146102ab5780638da5cb5b146102cb57600080fd5b80631703a018116100e75780631703a018146101b75780633a98ef39146101db5780633feb5f2b146101f1578063443895241461022957806346fcff4c1461024d57600080fd5b8063013cf08b14610119578063039383e6146101535780630d61b5191461017557806314bff70c14610195575b600080fd5b34801561012557600080fd5b50610139610134366004611289565b61037a565b60405161014a9594939291906112ef565b60405180910390f35b34801561015f57600080fd5b5061017361016e366004611349565b61043e565b005b34801561018157600080fd5b50610173610190366004611289565b61067f565b3480156101a157600080fd5b506101aa61086e565b60405161014a91906113bd565b3480156101c357600080fd5b506101cd60035481565b60405190815260200161014a565b3480156101e757600080fd5b506101cd60045481565b3480156101fd57600080fd5b5061021161020c366004611289565b6108d0565b6040516001600160a01b03909116815260200161014a565b34801561023557600080fd5b5061023e6108fa565b60405161014a939291906113d7565b34801561025957600080fd5b506101cd60055481565b610173610b19565b34801561027757600080fd5b50610173610286366004611485565b610cb4565b34801561029757600080fd5b506101736102a6366004611289565b610dd3565b3480156102b757600080fd5b506101736102c6366004611510565b610fb5565b3480156102d757600080fd5b50600054610211906001600160a01b031681565b3480156102f757600080fd5b506101cd60015481565b34801561030d57600080fd5b506101cd60025481565b34801561032357600080fd5b50610173610332366004611289565b611048565b34801561034357600080fd5b506101cd61035236600461153c565b60076020526000908152604090205481565b34801561037057600080fd5b506101cd60065481565b60086020526000908152604090208054819061039590611559565b80601f01602080910402602001604051908101604052809291908181526020018280546103c190611559565b801561040e5780601f106103e35761010080835404028352916020019161040e565b820191906000526020600020905b8154815290600101906020018083116103f157829003601f168201915b50505050600183015460028401546003850154600490950154939491936001600160a01b03909116925060ff1685565b336000908152600760205260409020546104735760405162461bcd60e51b815260040161046a90611594565b60405180910390fd5b600082116104d55760405162461bcd60e51b815260206004820152602960248201527f5472616e7366657220616d6f756e74206d7573742062652067726561746572206044820152687468656e207a65726f60b81b606482015260840161046a565b3360009081526007602052604090205482111561052a5760405162461bcd60e51b8152602060048201526013602482015272496e73756666696369656e742073686172657360681b604482015260640161046a565b6001600160a01b0381166105805760405162461bcd60e51b815260206004820152601960248201527f496e76616c696420726563697069656e74206164647265737300000000000000604482015260640161046a565b336000908152600760205260408120805484929061059f9084906115ef565b90915550506001600160a01b03811660009081526007602052604090205461060d57600980546001810182556000919091527f6e1540171b6c0c960b71a7020d9f60077f6af931a8bbf590da0223dacf75c7af0180546001600160a01b0319166001600160a01b0383161790555b6001600160a01b03811660009081526007602052604081208054849290610635908490611606565b90915550506040518281526001600160a01b0382169033907f42a6cd1e9e876206646a9eacb9cf776e74ee2e827040df117f589968704cc7ed906020015b60405180910390a35050565b6000546001600160a01b031633146106a95760405162461bcd60e51b815260040161046a9061161e565b6000818152600860205260409020600481015460ff16156107085760405162461bcd60e51b8152602060048201526019602482015278141c9bdc1bdcd85b08185b1c9958591e48195e1958dd5d1959603a1b604482015260640161046a565b6002546001546107189190611606565b42116107665760405162461bcd60e51b815260206004820152601d60248201527f566f74696e6720706572696f64206973207374696c6c20616374697665000000604482015260640161046a565b60008160030154905060006064600354600454610783919061165f565b61078d919061167e565b9050808210156107d05760405162461bcd60e51b815260206004820152600e60248201526d145d5bdc9d5b481b9bdd081b595d60921b604482015260640161046a565b60048301805460ff19166001908117909155830154600580546000906107f79084906115ef565b9091555050600283015460018401546040516001600160a01b039092169181156108fc0291906000818181858888f1935050505015801561083c573d6000803e3d6000fd5b5060405184907f712ae1383f79ac853f8d882153778e0260ef8f03b504e2866e0593e04d2b291f90600090a250505050565b606060098054806020026020016040519081016040528092919081815260200182805480156108c657602002820191906000526020600020905b81546001600160a01b031681526001909101906020018083116108a8575b5050505050905090565b600981815481106108e057600080fd5b6000918252602090912001546001600160a01b0316905081565b606080606060065467ffffffffffffffff81111561091a5761091a6116a0565b60405190808252806020026020018201604052801561094d57816020015b60608152602001906001900390816109385790505b50925060065467ffffffffffffffff81111561096b5761096b6116a0565b604051908082528060200260200182016040528015610994578160200160208202803683370190505b50915060065467ffffffffffffffff8111156109b2576109b26116a0565b6040519080825280602002602001820160405280156109db578160200160208202803683370190505b50905060005b600654811015610b1357600081815260086020526040902080548190610a0690611559565b80601f0160208091040260200160405190810160405280929190818152602001828054610a3290611559565b8015610a7f5780601f10610a5457610100808354040283529160200191610a7f565b820191906000526020600020905b815481529060010190602001808311610a6257829003601f168201915b5050505050858381518110610a9657610a966116b6565b60200260200101819052508060010154848381518110610ab857610ab86116b6565b6020908102919091010152600281015483516001600160a01b0390911690849084908110610ae857610ae86116b6565b6001600160a01b03909216602092830291909101909101525080610b0b816116cc565b9150506109e1565b50909192565b60003411610b7f5760405162461bcd60e51b815260206004820152602d60248201527f436f6e747269627574696f6e20616d6f756e74206d757374206265206772656160448201526c746572207468656e207a65726f60981b606482015260840161046a565b6001544210610bd05760405162461bcd60e51b815260206004820152601b60248201527f436f6e747269627574696f6e2074696d652068617320656e6465640000000000604482015260640161046a565b33600090815260076020526040902054610c2757600980546001810182556000919091527f6e1540171b6c0c960b71a7020d9f60077f6af931a8bbf590da0223dacf75c7af0180546001600160a01b031916331790555b3360009081526007602052604081208054349290610c46908490611606565b925050819055503460056000828254610c5f9190611606565b925050819055503460046000828254610c789190611606565b909155505060405134815233907f925dc82bf2d09a0475dbf8d1cdd08814ab627c055fc09de91bb40f87448de2129060200160405180910390a2565b6000546001600160a01b03163314610cde5760405162461bcd60e51b815260040161046a9061161e565b600554821115610d005760405162461bcd60e51b815260040161046a906116e7565b600554821115610d225760405162461bcd60e51b815260040161046a906116e7565b6006546000908152600860205260409020610d3e8186866111f0565b50600181018390556002810180546001600160a01b0319166001600160a01b0384161790556000600382015560048101805460ff191690556006546040517f98504bc76d855fac343248bdddc062a45d467777dd16a83e57e505f8121562f390610daf90889088908890889061171e565b60405180910390a260068054906000610dc7836116cc565b91905055505050505050565b33600090815260076020526040902054610dff5760405162461bcd60e51b815260040161046a90611594565b6000818152600860205260409020600481015460ff1615610e5e5760405162461bcd60e51b8152602060048201526019602482015278141c9bdc1bdcd85b08185b1c9958591e48195e1958dd5d1959603a1b604482015260640161046a565b33600090815260058201602052604090205460ff1615610ed05760405162461bcd60e51b815260206004820152602760248201527f596f75206861766520616c726561647920766f746564206f6e207468697320706044820152661c9bdc1bdcd85b60ca1b606482015260840161046a565b600254600154610ee09190611606565b421115610f2f5760405162461bcd60e51b815260206004820152601760248201527f566f74696e6720706572696f642068617320656e646564000000000000000000604482015260640161046a565b3360009081526005820160209081526040808320805460ff19166001179055600790915281205460038301805491929091610f6b908490611606565b909155505033600081815260076020526040908190205490518492917fb4cfecf70861b7b150d8337780d34fb4cbc2114b5fb1fe51a5c5fca1849f72749161067391815260200190565b6000546001600160a01b03163314610fdf5760405162461bcd60e51b815260040161046a9061161e565b6001541561102f5760405162461bcd60e51b815260206004820152601760248201527f44414f20616c726561647920696e697469616c697a6564000000000000000000604482015260640161046a565b6110398342611606565b60015560029190915560035550565b336000908152600760205260409020546110745760405162461bcd60e51b815260040161046a90611594565b600081116110d65760405162461bcd60e51b815260206004820152602960248201527f52656564656d20616d6f756e742073686f756c642062652067726561746572206044820152687468656e207a65726f60b81b606482015260840161046a565b3360009081526007602052604090205481111561112b5760405162461bcd60e51b8152602060048201526013602482015272496e73756666696369656e742073686172657360681b604482015260640161046a565b80600554101561114d5760405162461bcd60e51b815260040161046a906116e7565b336000908152600760205260408120805483929061116c9084906115ef565b92505081905550806005600082825461118591906115ef565b9091555050604051339082156108fc029083906000818181858888f193505050501580156111b7573d6000803e3d6000fd5b5060405181815233907fa4b98c2d54dbf3071a51309733dab9745c680507cb884d3266077debefb34e509060200160405180910390a250565b8280546111fc90611559565b90600052602060002090601f01602090048101928261121e5760008555611264565b82601f106112375782800160ff19823516178555611264565b82800160010185558215611264579182015b82811115611264578235825591602001919060010190611249565b50611270929150611274565b5090565b5b808211156112705760008155600101611275565b60006020828403121561129b57600080fd5b5035919050565b6000815180845260005b818110156112c8576020818501810151868301820152016112ac565b818111156112da576000602083870101525b50601f01601f19169290920160200192915050565b60a08152600061130260a08301886112a2565b6020830196909652506001600160a01b0393909316604084015260608301919091521515608090910152919050565b6001600160a01b038116811461134657600080fd5b50565b6000806040838503121561135c57600080fd5b82359150602083013561136e81611331565b809150509250929050565b600081518084526020808501945080840160005b838110156113b25781516001600160a01b03168752958201959082019060010161138d565b509495945050505050565b6020815260006113d06020830184611379565b9392505050565b6000606082016060835280865180835260808501915060808160051b8601019250602080890160005b8381101561142e57607f1988870301855261141c8683516112a2565b95509382019390820190600101611400565b50508584038187015287518085528882019482019350915060005b8281101561146557845184529381019392810192600101611449565b505050838103604085015261147a8186611379565b979650505050505050565b6000806000806060858703121561149b57600080fd5b843567ffffffffffffffff808211156114b357600080fd5b818701915087601f8301126114c757600080fd5b8135818111156114d657600080fd5b8860208285010111156114e857600080fd5b602092830196509450508501359150604085013561150581611331565b939692955090935050565b60008060006060848603121561152557600080fd5b505081359360208301359350604090920135919050565b60006020828403121561154e57600080fd5b81356113d081611331565b600181811c9082168061156d57607f821691505b6020821081141561158e57634e487b7160e01b600052602260045260246000fd5b50919050565b60208082526025908201527f4f6e6c7920696e766573746f72732063616e2063616c6c20746869732066756e60408201526431ba34b7b760d91b606082015260800190565b634e487b7160e01b600052601160045260246000fd5b600082821015611601576116016115d9565b500390565b60008219821115611619576116196115d9565b500190565b60208082526021908201527f4f6e6c79206f776e65722063616e2063616c6c20746869732066756e6374696f6040820152603760f91b606082015260800190565b6000816000190483118215151615611679576116796115d9565b500290565b60008261169b57634e487b7160e01b600052601260045260246000fd5b500490565b634e487b7160e01b600052604160045260246000fd5b634e487b7160e01b600052603260045260246000fd5b60006000198214156116e0576116e06115d9565b5060010190565b6020808252601c908201527f496e73756666696369656e7420617661696c61626c652066756e647300000000604082015260600190565b60608152836060820152838560808301376000608085830181019190915260208201939093526001600160a01b03919091166040820152601f909201601f19169091010191905056fea2646970667358221220d2f7f4aa75dd14576b96b8625e10eb77c575013e43ed85735010ce8ce484c81d64736f6c634300080a0033","linkReferences":{}},"methodIdentifiers":{"allInvestorList()":"14bff70c","availableFunds()":"46fcff4c","contribution()":"50520b1f","contributionTimeEnd()":"afc8275b","createProposal(string,uint256,address)":"6ac1e01f","executeProposal(uint256)":"0d61b519","initializeDAO(uint256,uint256,uint256)":"861e1a30","investors(uint256)":"3feb5f2b","owner()":"8da5cb5b","proposalCount()":"da35c664","proposalList()":"44389524","proposals(uint256)":"013cf08b","quorum()":"1703a018","reedemShare(uint256)":"c1188cff","shares(address)":"ce7c2ac2","totalShares()":"3a98ef39","transferShare(uint256,address)":"039383e6","voteProposal(uint256)":"807896d5","voteTime()":"bcf93dd6"},"id":26}