{"abi":[{"type":"constructor","inputs":[{"name":"_token","type":"address","internalType":"address"},{"name":"_owner","type":"address","internalType":"address"}],"stateMutability":"nonpayable"},{"type":"function","name":"cancelContribution","inputs":[{"name":"_id","type":"uint256","internalType":"uint256"}],"outputs":[],"stateMutability":"nonpayable"},{"type":"function","name":"contribute","inputs":[{"name":"_id","type":"uint256","internalType":"uint256"},{"name":"_amount","type":"uint256","internalType":"uint256"}],"outputs":[],"stateMutability":"nonpayable"},{"type":"function","name":"contributions","inputs":[{"name":"","type":"uint256","internalType":"uint256"},{"name":"","type":"address","internalType":"address"}],"outputs":[{"name":"","type":"uint256","internalType":"uint256"}],"stateMutability":"view"},{"type":"function","name":"createCampaign","inputs":[{"name":"_goal","type":"uint256","internalType":"uint256"},{"name":"_duration","type":"uint256","internalType":"uint256"}],"outputs":[],"stateMutability":"nonpayable"},{"type":"function","name":"getCampaign","inputs":[{"name":"_id","type":"uint256","internalType":"uint256"}],"outputs":[{"name":"goal","type":"uint256","internalType":"uint256"},{"name":"totalFunds","type":"uint256","internalType":"uint256"},{"name":"endTime","type":"uint256","internalType":"uint256"},{"name":"creator","type":"address","internalType":"address"},{"name":"isActive","type":"bool","internalType":"bool"}],"stateMutability":"view"},{"type":"function","name":"getContribution","inputs":[{"name":"_id","type":"uint256","internalType":"uint256"},{"name":"_contributor","type":"address","internalType":"address"}],"outputs":[{"name":"","type":"uint256","internalType":"uint256"}],"stateMutability":"view"},{"type":"function","name":"nextCampaignId","inputs":[],"outputs":[{"name":"","type":"uint256","internalType":"uint256"}],"stateMutability":"view"},{"type":"function","name":"owner","inputs":[],"outputs":[{"name":"","type":"address","internalType":"address"}],"stateMutability":"view"},{"type":"function","name":"refund","inputs":[{"name":"_id","type":"uint256","internalType":"uint256"}],"outputs":[],"stateMutability":"nonpayable"},{"type":"function","name":"renounceOwnership","inputs":[],"outputs":[],"stateMutability":"nonpayable"},{"type":"function","name":"token","inputs":[],"outputs":[{"name":"","type":"address","internalType":"contract ERC20"}],"stateMutability":"view"},{"type":"function","name":"transferOwnership","inputs":[{"name":"newOwner","type":"address","internalType":"address"}],"outputs":[],"stateMutability":"nonpayable"},{"type":"function","name":"withdrawFunds","inputs":[{"name":"_id","type":"uint256","internalType":"uint256"}],"outputs":[],"stateMutability":"nonpayable"},{"type":"event","name":"CampaignCreated","inputs":[{"name":"id","type":"uint256","indexed":false,"internalType":"uint256"},{"name":"creator","type":"address","indexed":false,"internalType":"address"},{"name":"goal","type":"uint256","indexed":false,"internalType":"uint256"},{"name":"duration","type":"uint256","indexed":false,"internalType":"uint256"}],"anonymous":false},{"type":"event","name":"ContributionCancelled","inputs":[{"name":"campaignId","type":"uint256","indexed":false,"internalType":"uint256"},{"name":"contributor","type":"address","indexed":false,"internalType":"address"},{"name":"amount","type":"uint256","indexed":false,"internalType":"uint256"}],"anonymous":false},{"type":"event","name":"ContributionMade","inputs":[{"name":"campaignId","type":"uint256","indexed":false,"internalType":"uint256"},{"name":"contributor","type":"address","indexed":false,"internalType":"address"},{"name":"amount","type":"uint256","indexed":false,"internalType":"uint256"}],"anonymous":false},{"type":"event","name":"FundsWithdrawn","inputs":[{"name":"campaignId","type":"uint256","indexed":false,"internalType":"uint256"},{"name":"creator","type":"address","indexed":false,"internalType":"address"},{"name":"amount","type":"uint256","indexed":false,"internalType":"uint256"}],"anonymous":false},{"type":"event","name":"OwnershipTransferred","inputs":[{"name":"previousOwner","type":"address","indexed":true,"internalType":"address"},{"name":"newOwner","type":"address","indexed":true,"internalType":"address"}],"anonymous":false},{"type":"event","name":"RefundIssued","inputs":[{"name":"campaignId","type":"uint256","indexed":false,"internalType":"uint256"},{"name":"donor","type":"address","indexed":false,"internalType":"address"},{"name":"amount","type":"uint256","indexed":false,"internalType":"uint256"}],"anonymous":false},{"type":"error","name":"CampaignAmountZero","inputs":[]},{"type":"error","name":"CampaignEnded","inputs":[]},{"type":"error","name":"CampaignNotActive","inputs":[]},{"type":"error","name":"CampaignNotEnded","inputs":[]},{"type":"error","name":"CampaignNotFound","inputs":[]},{"type":"error","name":"CampaignShortDuration","inputs":[]},{"type":"error","name":"CreatorCannotContribute","inputs":[]},{"type":"error","name":"GoalNotReached","inputs":[]},{"type":"error","name":"GoalReached","inputs":[]},{"type":"error","name":"InvalidContributionAmount","inputs":[]},{"type":"error","name":"NoContributionToCancel","inputs":[]},{"type":"error","name":"NoContributionToRefund","inputs":[]},{"type":"error","name":"NotCampaignCreator","inputs":[]},{"type":"error","name":"OwnableInvalidOwner","inputs":[{"name":"owner","type":"address","internalType":"address"}]},{"type":"error","name":"OwnableUnauthorizedAccount","inputs":[{"name":"account","type":"address","internalType":"address"}]},{"type":"error","name":"TransferFailed","inputs":[]}],"bytecode":{"object":"0x608060405234801561001057600080fd5b50604051610df5380380610df583398101604081905261002f916100fa565b806001600160a01b03811661005e57604051631e4fbdf760e01b81526000600482015260240160405180910390fd5b6100678161008e565b5050600180546001600160a01b0319166001600160a01b039290921691909117905561012d565b600080546001600160a01b038381166001600160a01b0319831681178455604051919092169283917f8be0079c531659141344cd1fd0a4f28419497f9722a3daafe3b4186f6b6457e09190a35050565b80516001600160a01b03811681146100f557600080fd5b919050565b6000806040838503121561010d57600080fd5b610116836100de565b9150610124602084016100de565b90509250929050565b610cb98061013c6000396000f3fe608060405234801561001057600080fd5b50600436106100cf5760003560e01c8063715018a61161008c5780638da5cb5b116100665780638da5cb5b1461022d578063e081dbf914610252578063f2fde38b14610265578063fc0c546a1461027857600080fd5b8063715018a6146102095780637903a756146102115780638c5909171461021a57600080fd5b8063155dd5ee146100d457806322502268146100e9578063278ecde1146100fc578063368e571b1461010f5780633d891f59146101225780635598f8cc14610160575b600080fd5b6100e76100e2366004610b67565b61028b565b005b6100e76100f7366004610b80565b610403565b6100e761010a366004610b67565b61054c565b6100e761011d366004610b67565b610701565b61014d610130366004610bbe565b600360209081526000928352604080842090915290825290205481565b6040519081526020015b60405180910390f35b6101d661016e366004610b67565b600090815260026020818152604092839020835160a08101855281548082526001830154938201849052938201549481018590526003909101546001600160a01b03811660608301819052600160a01b90910460ff1615156080909201829052929491939291565b604080519586526020860194909452928401919091526001600160a01b031660608301521515608082015260a001610157565b6100e76108a1565b61014d60045481565b6100e7610228366004610b80565b6108b5565b6000546001600160a01b03165b6040516001600160a01b039091168152602001610157565b61014d610260366004610bbe565b610a7d565b6100e7610273366004610bea565b610aa7565b60015461023a906001600160a01b031681565b600081815260026020526040902060038101546001600160a01b031633146102c6576040516339a0685760e21b815260040160405180910390fd5b80600201544210156102eb5760405163cc76115360e01b815260040160405180910390fd5b805460018201541015610311576040516378c754c960e01b815260040160405180910390fd5b60018181018054600090915560038301805460ff60a01b19169055905460405163a9059cbb60e01b8152336004820152602481018390526001600160a01b039091169063a9059cbb906044016020604051808303816000875af115801561037c573d6000803e3d6000fd5b505050506040513d601f19601f820116820180604052508101906103a09190610c0c565b6103bd576040516312171d8360e31b815260040160405180910390fd5b604080518481523360208201529081018290527ff440aec6b52895984d061d622e6edeba6210f7c3e059be920663140c084560d7906060015b60405180910390a1505050565b6000821161042457604051635c4c1b1d60e01b815260040160405180910390fd5b6000811161044557604051634987529f60e01b815260040160405180910390fd5b60006104518242610c44565b6040805160a081018252858152600060208083018281528385018681523360608601818152600160808801818152600480548952600297889052978a902098518955945190880155915193860193909355516003909401805491511515600160a01b026001600160a81b03199092166001600160a01b039590951694909417179092555491519293507f91b289a829e71d811b8c69e4a24ba2d40d115d8a236e9a724cb3bb2d43cf72239261052a929190879087909384526001600160a01b039290921660208401526040830152606082015260800190565b60405180910390a16004805490600061054283610c57565b9190505550505050565b6000818152600260208190526040909120908101544210156105815760405163cc76115360e01b815260040160405180910390fd5b80546001820154036105a65760405163f30bb8af60e01b815260040160405180910390fd5b6000828152600360209081526040808320338452909152812054908190036105e15760405163634b67f560e11b815260040160405180910390fd5b60008381526003602090815260408083203384529091528120819055600183018054839290610611908490610c70565b909155505060018201546000036106325760038201805460ff60a01b191690555b60015460405163a9059cbb60e01b8152336004820152602481018390526001600160a01b039091169063a9059cbb906044016020604051808303816000875af1158015610683573d6000803e3d6000fd5b505050506040513d601f19601f820116820180604052508101906106a79190610c0c565b6106c4576040516312171d8360e31b815260040160405180910390fd5b604080518481523360208201529081018290527f7a482fdeb6bc9a1376f597068a214a7a39472bb2eff1b8cad21ba04f49ddca1b906060016103f6565b60008181526002602052604090206003810154600160a01b900460ff1661073b5760405163219a945b60e11b815260040160405180910390fd5b8060020154421061075f5760405163154eb81560e21b815260040160405180910390fd5b60008281526003602090815260408083203384529091528120549081900361079a5760405163a8a7166960e01b815260040160405180910390fd5b808260010160008282546107ae9190610c70565b9091555050600083815260036020908152604080832033808552925280832092909255600154915163a9059cbb60e01b81526004810191909152602481018390526001600160a01b039091169063a9059cbb906044016020604051808303816000875af1158015610823573d6000803e3d6000fd5b505050506040513d601f19601f820116820180604052508101906108479190610c0c565b610864576040516312171d8360e31b815260040160405180910390fd5b604080518481523360208201529081018290527fef8d57046ad1335dcf28a7a2609882190178383c1439e397f1086537447bc97b906060016103f6565b6108a9610aea565b6108b36000610b17565b565b60008281526002602052604090206003810154600160a01b900460ff166108ef5760405163219a945b60e11b815260040160405180910390fd5b806002015442106109135760405163154eb81560e21b815260040160405180910390fd5b8160000361093457604051631717aceb60e31b815260040160405180910390fd5b60038101546001600160a01b03163303610961576040516359bd623560e01b815260040160405180910390fd5b6001546040516323b872dd60e01b8152336004820152306024820152604481018490526001600160a01b03909116906323b872dd906064016020604051808303816000875af11580156109b8573d6000803e3d6000fd5b505050506040513d601f19601f820116820180604052508101906109dc9190610c0c565b6109f9576040516312171d8360e31b815260040160405180910390fd5b81816001016000828254610a0d9190610c44565b9091555050600083815260036020908152604080832033845290915281208054849290610a3b908490610c44565b9091555050604080518481523360208201529081018390527f0a4a91237423e0a1766a761c7cb029311d8b95d6b1b81db1b949a70c98b4e08e906060016103f6565b60008281526003602090815260408083206001600160a01b03851684529091529020545b92915050565b610aaf610aea565b6001600160a01b038116610ade57604051631e4fbdf760e01b8152600060048201526024015b60405180910390fd5b610ae781610b17565b50565b6000546001600160a01b031633146108b35760405163118cdaa760e01b8152336004820152602401610ad5565b600080546001600160a01b038381166001600160a01b0319831681178455604051919092169283917f8be0079c531659141344cd1fd0a4f28419497f9722a3daafe3b4186f6b6457e09190a35050565b600060208284031215610b7957600080fd5b5035919050565b60008060408385031215610b9357600080fd5b50508035926020909101359150565b80356001600160a01b0381168114610bb957600080fd5b919050565b60008060408385031215610bd157600080fd5b82359150610be160208401610ba2565b90509250929050565b600060208284031215610bfc57600080fd5b610c0582610ba2565b9392505050565b600060208284031215610c1e57600080fd5b81518015158114610c0557600080fd5b634e487b7160e01b600052601160045260246000fd5b80820180821115610aa157610aa1610c2e565b600060018201610c6957610c69610c2e565b5060010190565b81810381811115610aa157610aa1610c2e56fea2646970667358221220450c57086050d0e478a542b435ce950ee77dde29534d8e71a189d5366b2ca25064736f6c634300081a0033","linkReferences":{}},"methodIdentifiers":{"cancelContribution(uint256)":"368e571b","contribute(uint256,uint256)":"8c590917","contributions(uint256,address)":"3d891f59","createCampaign(uint256,uint256)":"22502268","getCampaign(uint256)":"5598f8cc","getContribution(uint256,address)":"e081dbf9","nextCampaignId()":"7903a756","owner()":"8da5cb5b","refund(uint256)":"278ecde1","renounceOwnership()":"715018a6","token()":"fc0c546a","transferOwnership(address)":"f2fde38b","withdrawFunds(uint256)":"155dd5ee"},"id":29}