{"abi":[{"type":"constructor","inputs":[],"stateMutability":"nonpayable"},{"type":"function","name":"allInvestorList","inputs":[],"outputs":[{"name":"","type":"address[]","internalType":"address[]"}],"stateMutability":"view"},{"type":"function","name":"contribution","inputs":[],"outputs":[],"stateMutability":"payable"},{"type":"function","name":"createProposal","inputs":[{"name":"description","type":"string","internalType":"string"},{"name":"amount","type":"uint256","internalType":"uint256"},{"name":"receipient","type":"address","internalType":"address payable"}],"outputs":[],"stateMutability":"nonpayable"},{"type":"function","name":"executeProposal","inputs":[{"name":"proposalId","type":"uint256","internalType":"uint256"}],"outputs":[],"stateMutability":"nonpayable"},{"type":"function","name":"initializeDAO","inputs":[{"name":"_contributionTimeEnd","type":"uint256","internalType":"uint256"},{"name":"_voteTime","type":"uint256","internalType":"uint256"},{"name":"_quorum","type":"uint256","internalType":"uint256"}],"outputs":[],"stateMutability":"nonpayable"},{"type":"function","name":"proposalList","inputs":[],"outputs":[{"name":"","type":"string[]","internalType":"string[]"},{"name":"","type":"uint256[]","internalType":"uint256[]"},{"name":"","type":"address[]","internalType":"address[]"}],"stateMutability":"view"},{"type":"function","name":"redeemShare","inputs":[{"name":"amount","type":"uint256","internalType":"uint256"}],"outputs":[],"stateMutability":"nonpayable"},{"type":"function","name":"transferShare","inputs":[{"name":"amount","type":"uint256","internalType":"uint256"},{"name":"to","type":"address","internalType":"address"}],"outputs":[],"stateMutability":"nonpayable"},{"type":"function","name":"voteProposal","inputs":[{"name":"proposalId","type":"uint256","internalType":"uint256"}],"outputs":[],"stateMutability":"nonpayable"}],"bytecode":{"object":"0x608060405234801561001057600080fd5b50600d80546001600160a01b03191633179055610cda806100326000396000f3fe6080604052600436106100865760003560e01c806350520b1f1161005957806350520b1f1461011c5780636ac1e01f14610124578063807896d514610144578063861e1a3014610164578063868643df1461018457600080fd5b8063039383e61461008b5780630d61b519146100ad57806314bff70c146100cd57806344389524146100f8575b600080fd5b34801561009757600080fd5b506100ab6100a63660046109bc565b6101a4565b005b3480156100b957600080fd5b506100ab6100c83660046109ec565b6102b7565b3480156100d957600080fd5b506100e2610352565b6040516100ef9190610a49565b60405180910390f35b34801561010457600080fd5b5061010d6103c5565b6040516100ef93929190610a93565b6100ab61056f565b34801561013057600080fd5b506100ab61013f366004610b57565b61063d565b34801561015057600080fd5b506100ab61015f3660046109ec565b61074b565b34801561017057600080fd5b506100ab61017f366004610be2565b610823565b34801561019057600080fd5b506100ab61019f3660046109ec565b610878565b336000908152600a602052604090205482118015906101c35750600082115b6101cc57600080fd5b6001600160a01b03811660009081526009602052604090205460ff16610252576001600160a01b0381166000818152600960205260408120805460ff191660019081179091556008805491820181559091527ff3f7a9fe364faab93b216da50a3214154f22a0a2b415b23a84c8169e8b636ee30180546001600160a01b03191690911790555b336000908152600a602052604090205461026d908390610c24565b336000908152600a6020526040808220929092556001600160a01b0383168152205461029a908390610c3b565b6001600160a01b039091166000908152600a602052604090205550565b600d546001600160a01b031633146102ce57600080fd5b6000600282815481106102e3576102e3610c53565b600091825260209091200154600180546001600160a01b03909216925082916108fc91908590811061031757610317610c53565b90600052602060002001549081150290604051600060405180830381858888f1935050505015801561034d573d6000803e3d6000fd5b505050565b6008546060906001111561036557600080fd5b60088054806020026020016040519081016040528092919081815260200182805480156103bb57602002820191906000526020600020905b81546001600160a01b0316815260019091019060200180831161039d575b5050505050905090565b6060806060600160008054905010156103dd57600080fd5b60006001600282805480602002602001604051908101604052809291908181526020016000905b828210156104b057838290600052602060002001805461042390610c69565b80601f016020809104026020016040519081016040528092919081815260200182805461044f90610c69565b801561049c5780601f106104715761010080835404028352916020019161049c565b820191906000526020600020905b81548152906001019060200180831161047f57829003601f168201915b505050505081526020019060010190610404565b5050505092508180548060200260200160405190810160405280929190818152602001828054801561050157602002820191906000526020600020905b8154815260200190600101908083116104ed575b505050505091508080548060200260200160405190810160405280929190818152602001828054801561055d57602002820191906000526020600020905b81546001600160a01b0316815260019091019060200180831161053f575b50505050509050925092509250909192565b60035442111561057e57600080fd5b6000341161058b57600080fd5b3360009081526009602052604090205460ff166105ff57336000818152600960205260408120805460ff191660019081179091556008805491820181559091527ff3f7a9fe364faab93b216da50a3214154f22a0a2b415b23a84c8169e8b636ee30180546001600160a01b03191690911790555b336000908152600a602052604090205461061a903490610c3b565b336000908152600a6020526040902055600754610638903490610c3b565b600755565b600d546001600160a01b0316331461065457600080fd5b8147101561066157600080fd5b6000805460018101825590805261069b907f290decd9548b62a8d60345a988386fc84ba6bc95484008f6362f93160ef3e56301858561090b565b506001805480820182557fb10e2d527612073b26eecdfd717e6a320cf44b4afac2b0732d9fcbe2b7fa0cf60192909255600280548084019091557f405787fa12a823e0f2b7631cc41b3ba8828b3321ca811111fa75cd3aa3bb5ace0180546001600160a01b0319166001600160a01b0392909216919091179055600680549182018155600052427ff652222313e28459528d920b65115c16c04f3efc82aaedc97be59f3f377c0d3f909101555050565b6004546006828154811061076157610761610c53565b90600052602060002001546107769190610c3b565b42111561078257600080fd5b336000908152600b6020908152604080832084845290915290205460ff16156107aa57600080fd5b3360009081526009602052604090205460ff1615156001146107cb57600080fd5b336000818152600b602090815260408083208584528252808320805460ff19166001179055928252600a815282822054848352600c909152919020546108119190610c3b565b6000918252600c602052604090912055565b600d546001600160a01b0316331461083a57600080fd5b60008311801561084a5750600082115b80156108565750600081115b61085f57600080fd5b6108694284610c3b565b60035560049190915560055550565b336000908152600a602052604090205481118015906108975750804710155b6108a057600080fd5b336000908152600a60205260409020546108bb908290610c24565b336000908152600a60205260409020556007546108d9908290610c24565b6007556040513390819083156108fc029084906000818181858888f1935050505015801561034d573d6000803e3d6000fd5b82805461091790610c69565b90600052602060002090601f016020900481019282610939576000855561097f565b82601f106109525782800160ff1982351617855561097f565b8280016001018555821561097f579182015b8281111561097f578235825591602001919060010190610964565b5061098b92915061098f565b5090565b5b8082111561098b5760008155600101610990565b6001600160a01b03811681146109b957600080fd5b50565b600080604083850312156109cf57600080fd5b8235915060208301356109e1816109a4565b809150509250929050565b6000602082840312156109fe57600080fd5b5035919050565b600081518084526020808501945080840160005b83811015610a3e5781516001600160a01b031687529582019590820190600101610a19565b509495945050505050565b602081526000610a5c6020830184610a05565b9392505050565b600081518084526020808501945080840160005b83811015610a3e57815187529582019590820190600101610a77565b6000606082016060835280865180835260808501915060808160051b860101925060208089016000805b84811015610b2257888703607f1901865282518051808952835b81811015610af2578281018701518a82018801528601610ad7565b81811115610b02578487838c0101525b50601f01601f191697909701840196509483019491830191600101610abd565b50505085840381870152505050610b398186610a63565b90508281036040840152610b4d8185610a05565b9695505050505050565b60008060008060608587031215610b6d57600080fd5b843567ffffffffffffffff80821115610b8557600080fd5b818701915087601f830112610b9957600080fd5b813581811115610ba857600080fd5b886020828501011115610bba57600080fd5b6020928301965094505085013591506040850135610bd7816109a4565b939692955090935050565b600080600060608486031215610bf757600080fd5b505081359360208301359350604090920135919050565b634e487b7160e01b600052601160045260246000fd5b600082821015610c3657610c36610c0e565b500390565b60008219821115610c4e57610c4e610c0e565b500190565b634e487b7160e01b600052603260045260246000fd5b600181811c90821680610c7d57607f821691505b60208210811415610c9e57634e487b7160e01b600052602260045260246000fd5b5091905056fea2646970667358221220557d72e51c5d3a6e200e0a0338d628e124386285ee213005140245a7266de71464736f6c634300080a0033","linkReferences":{}},"methodIdentifiers":{"allInvestorList()":"14bff70c","contribution()":"50520b1f","createProposal(string,uint256,address)":"6ac1e01f","executeProposal(uint256)":"0d61b519","initializeDAO(uint256,uint256,uint256)":"861e1a30","proposalList()":"44389524","redeemShare(uint256)":"868643df","transferShare(uint256,address)":"039383e6","voteProposal(uint256)":"807896d5"},"id":24}