{"abi":[{"type":"constructor","inputs":[],"stateMutability":"nonpayable"},{"type":"function","name":"addrState","inputs":[{"name":"","type":"address","internalType":"address"}],"outputs":[{"name":"","type":"bool","internalType":"bool"}],"stateMutability":"view"},{"type":"function","name":"allInvestorsList","inputs":[],"outputs":[{"name":"","type":"address[]","internalType":"address[]"}],"stateMutability":"view"},{"type":"function","name":"amounts","inputs":[{"name":"","type":"uint256","internalType":"uint256"}],"outputs":[{"name":"","type":"uint256","internalType":"uint256"}],"stateMutability":"view"},{"type":"function","name":"balance","inputs":[{"name":"","type":"address","internalType":"address"}],"outputs":[{"name":"","type":"uint256","internalType":"uint256"}],"stateMutability":"view"},{"type":"function","name":"contribution","inputs":[],"outputs":[],"stateMutability":"payable"},{"type":"function","name":"contributionTimeEnd","inputs":[],"outputs":[{"name":"","type":"uint256","internalType":"uint256"}],"stateMutability":"view"},{"type":"function","name":"createProposal","inputs":[{"name":"description","type":"string","internalType":"string"},{"name":"amount","type":"uint256","internalType":"uint256"},{"name":"recipient","type":"address","internalType":"address payable"}],"outputs":[],"stateMutability":"nonpayable"},{"type":"function","name":"createTimes","inputs":[{"name":"","type":"uint256","internalType":"uint256"}],"outputs":[{"name":"","type":"uint256","internalType":"uint256"}],"stateMutability":"view"},{"type":"function","name":"daoBalance","inputs":[],"outputs":[{"name":"","type":"uint256","internalType":"uint256"}],"stateMutability":"view"},{"type":"function","name":"descriptions","inputs":[{"name":"","type":"uint256","internalType":"uint256"}],"outputs":[{"name":"","type":"string","internalType":"string"}],"stateMutability":"view"},{"type":"function","name":"executeProposal","inputs":[{"name":"proposalId","type":"uint256","internalType":"uint256"}],"outputs":[],"stateMutability":"nonpayable"},{"type":"function","name":"getInvestorBalance","inputs":[{"name":"investor","type":"address","internalType":"address"}],"outputs":[{"name":"","type":"uint256","internalType":"uint256"}],"stateMutability":"view"},{"type":"function","name":"initializeDAO","inputs":[{"name":"_contributionTimeEnd","type":"uint256","internalType":"uint256"},{"name":"_voteTime","type":"uint256","internalType":"uint256"},{"name":"_quorum","type":"uint256","internalType":"uint256"}],"outputs":[],"stateMutability":"nonpayable"},{"type":"function","name":"investorList","inputs":[{"name":"","type":"uint256","internalType":"uint256"}],"outputs":[{"name":"","type":"address","internalType":"address"}],"stateMutability":"view"},{"type":"function","name":"owner","inputs":[],"outputs":[{"name":"","type":"address","internalType":"address"}],"stateMutability":"view"},{"type":"function","name":"proposalList","inputs":[],"outputs":[{"name":"","type":"string[]","internalType":"string[]"},{"name":"","type":"uint256[]","internalType":"uint256[]"},{"name":"","type":"address[]","internalType":"address[]"}],"stateMutability":"view"},{"type":"function","name":"quorum","inputs":[],"outputs":[{"name":"","type":"uint256","internalType":"uint256"}],"stateMutability":"view"},{"type":"function","name":"recipients","inputs":[{"name":"","type":"uint256","internalType":"uint256"}],"outputs":[{"name":"","type":"address","internalType":"address"}],"stateMutability":"view"},{"type":"function","name":"redeemShare","inputs":[{"name":"amount","type":"uint256","internalType":"uint256"}],"outputs":[],"stateMutability":"nonpayable"},{"type":"function","name":"transferShare","inputs":[{"name":"amount","type":"uint256","internalType":"uint256"},{"name":"to","type":"address","internalType":"address"}],"outputs":[],"stateMutability":"nonpayable"},{"type":"function","name":"voteNum","inputs":[{"name":"","type":"uint256","internalType":"uint256"}],"outputs":[{"name":"","type":"uint256","internalType":"uint256"}],"stateMutability":"view"},{"type":"function","name":"voteProposal","inputs":[{"name":"proposalId","type":"uint256","internalType":"uint256"}],"outputs":[],"stateMutability":"nonpayable"},{"type":"function","name":"voteState","inputs":[{"name":"","type":"address","internalType":"address"},{"name":"","type":"uint256","internalType":"uint256"}],"outputs":[{"name":"","type":"bool","internalType":"bool"}],"stateMutability":"view"},{"type":"function","name":"voteTime","inputs":[],"outputs":[{"name":"","type":"uint256","internalType":"uint256"}],"stateMutability":"view"},{"type":"event","name":"Contribution","inputs":[{"name":"user","type":"address","indexed":true,"internalType":"address"},{"name":"amount","type":"uint256","indexed":false,"internalType":"uint256"}],"anonymous":false},{"type":"event","name":"CreateProposal","inputs":[{"name":"description","type":"string","indexed":false,"internalType":"string"},{"name":"amount","type":"uint256","indexed":false,"internalType":"uint256"},{"name":"recipient","type":"address","indexed":false,"internalType":"address"}],"anonymous":false},{"type":"event","name":"ProposalExecuted","inputs":[{"name":"proposalId","type":"uint256","indexed":true,"internalType":"uint256"}],"anonymous":false},{"type":"event","name":"RedeemShare","inputs":[{"name":"user","type":"address","indexed":true,"internalType":"address"},{"name":"amount","type":"uint256","indexed":false,"internalType":"uint256"}],"anonymous":false},{"type":"event","name":"TransferShare","inputs":[{"name":"from","type":"address","indexed":true,"internalType":"address"},{"name":"to","type":"address","indexed":true,"internalType":"address"},{"name":"amount","type":"uint256","indexed":false,"internalType":"uint256"}],"anonymous":false},{"type":"event","name":"VoteProposal","inputs":[{"name":"voter","type":"address","indexed":true,"internalType":"address"},{"name":"proposalId","type":"uint256","indexed":true,"internalType":"uint256"},{"name":"weight","type":"uint256","indexed":false,"internalType":"uint256"}],"anonymous":false},{"type":"error","name":"AlreadyVoted","inputs":[]},{"type":"error","name":"ContributionPeriodEnded","inputs":[]},{"type":"error","name":"InsufficientBalanceForRedemption","inputs":[]},{"type":"error","name":"InsufficientBalanceForTransfer","inputs":[]},{"type":"error","name":"InsufficientContributionAmount","inputs":[]},{"type":"error","name":"InsufficientDAOFunds","inputs":[]},{"type":"error","name":"NotInvestor","inputs":[]},{"type":"error","name":"NotOwner","inputs":[]},{"type":"error","name":"ProposalCreationFailed","inputs":[]},{"type":"error","name":"QuorumNotMet","inputs":[]},{"type":"error","name":"TransferAmountZero","inputs":[]},{"type":"error","name":"TransferToSelf","inputs":[]},{"type":"error","name":"VotingPeriodEnded","inputs":[]},{"type":"error","name":"VotingPeriodNotEnded","inputs":[]}],"bytecode":{"object":"0x608060405234801561001057600080fd5b50600d80546001600160a01b031916331790556115a6806100326000396000f3fe60806040526004361061014b5760003560e01c8063807896d5116100b6578063b9df92871161006f578063b9df9287146103e5578063bcf93dd614610415578063bd9728161461042b578063d1bc76a114610441578063e3d670d714610461578063e6f859e71461048e57600080fd5b8063807896d51461032d578063861e1a301461034d578063868643df1461036d5780638da5cb5b1461038d5780639435ad64146103ad578063afc8275b146103cf57600080fd5b80634438952411610108578063443895241461025e57806345f0a44f1461028257806350520b1f146102a25780635ea63913146102aa57806360f426c2146102e05780636ac1e01f1461030d57600080fd5b8063039383e6146101505780630d61b5191461017257806312f9b48e146101925780631703a018146101cf5780631d3d7e33146101f35780632917707c1461023e575b600080fd5b34801561015c57600080fd5b5061017061016b36600461119b565b6104bb565b005b34801561017e57600080fd5b5061017061018d3660046111cb565b61064e565b34801561019e57600080fd5b506101b26101ad3660046111cb565b6107f9565b6040516001600160a01b0390911681526020015b60405180910390f35b3480156101db57600080fd5b506101e560055481565b6040519081526020016101c6565b3480156101ff57600080fd5b5061022e61020e3660046111e4565b600b60209081526000928352604080842090915290825290205460ff1681565b60405190151581526020016101c6565b34801561024a57600080fd5b506101e56102593660046111cb565b610823565b34801561026a57600080fd5b50610273610844565b6040516101c6939291906112a1565b34801561028e57600080fd5b506101e561029d3660046111cb565b610a2d565b610170610a3d565b3480156102b657600080fd5b506101e56102c536600461134f565b6001600160a01b03166000908152600a602052604090205490565b3480156102ec57600080fd5b506101e56102fb3660046111cb565b600c6020526000908152604090205481565b34801561031957600080fd5b50610170610328366004611373565b610b66565b34801561033957600080fd5b506101706103483660046111cb565b610cd6565b34801561035957600080fd5b506101706103683660046113fe565b610e2d565b34801561037957600080fd5b506101706103883660046111cb565b610ea3565b34801561039957600080fd5b50600d546101b2906001600160a01b031681565b3480156103b957600080fd5b506103c2610f83565b6040516101c6919061142a565b3480156103db57600080fd5b506101e560035481565b3480156103f157600080fd5b5061022e61040036600461134f565b60096020526000908152604090205460ff1681565b34801561042157600080fd5b506101e560045481565b34801561043757600080fd5b506101e560075481565b34801561044d57600080fd5b506101b261045c3660046111cb565b61102e565b34801561046d57600080fd5b506101e561047c36600461134f565b600a6020526000908152604090205481565b34801561049a57600080fd5b506104ae6104a93660046111cb565b61103e565b6040516101c6919061143d565b336000908152600a60205260409020548211156104eb5760405163eeced69960e01b815260040160405180910390fd5b81610509576040516329a1e53760e01b815260040160405180910390fd5b336001600160a01b03821614156105335760405163bf2f44f560e01b815260040160405180910390fd5b6001600160a01b03811660009081526009602052604090205460ff166105b9576001600160a01b0381166000818152600960205260408120805460ff191660019081179091556008805491820181559091527ff3f7a9fe364faab93b216da50a3214154f22a0a2b415b23a84c8169e8b636ee30180546001600160a01b03191690911790555b336000908152600a6020526040812080548492906105d8908490611466565b90915550506001600160a01b0381166000908152600a60205260408120805484929061060590849061147d565b90915550506040518281526001600160a01b0382169033907f42a6cd1e9e876206646a9eacb9cf776e74ee2e827040df117f589968704cc7ed9060200160405180910390a35050565b600d546001600160a01b03163314610679576040516330cd747160e01b815260040160405180910390fd5b6004546006828154811061068f5761068f611495565b90600052602060002001546106a4919061147d565b42116106c357604051630cd7c29960e21b815260040160405180910390fd5b60646005546007546106d591906114ab565b6106df91906114ca565b6000828152600c60205260409020541161070c57604051636bcf412560e11b815260040160405180910390fd5b476001828154811061072057610720611495565b9060005260206000200154111561074a5760405163837d6bc760e01b815260040160405180910390fd5b60006002828154811061075f5761075f611495565b600091825260209091200154600180546001600160a01b03909216925082916108fc91908590811061079357610793611495565b90600052602060002001549081150290604051600060405180830381858888f193505050501580156107c9573d6000803e3d6000fd5b5060405182907f712ae1383f79ac853f8d882153778e0260ef8f03b504e2866e0593e04d2b291f90600090a25050565b6008818154811061080957600080fd5b6000918252602090912001546001600160a01b0316905081565b6006818154811061083357600080fd5b600091825260209091200154905081565b6060806060600080805490501161089b5760405162461bcd60e51b81526020600482015260166024820152754e6f2070726f706f73616c7320617661696c61626c6560501b60448201526064015b60405180910390fd5b60006001600282805480602002602001604051908101604052809291908181526020016000905b8282101561096e5783829060005260206000200180546108e1906114ec565b80601f016020809104026020016040519081016040528092919081815260200182805461090d906114ec565b801561095a5780601f1061092f5761010080835404028352916020019161095a565b820191906000526020600020905b81548152906001019060200180831161093d57829003601f168201915b5050505050815260200190600101906108c2565b505050509250818054806020026020016040519081016040528092919081815260200182805480156109bf57602002820191906000526020600020905b8154815260200190600101908083116109ab575b5050505050915080805480602002602001604051908101604052809291908181526020018280548015610a1b57602002820191906000526020600020905b81546001600160a01b031681526001909101906020018083116109fd575b50505050509050925092509250909192565b6001818154811061083357600080fd5b600354421115610a60576040516303ffe7fd60e21b815260040160405180910390fd5b34610a7e57604051630f61278760e41b815260040160405180910390fd5b3360009081526009602052604090205460ff16610af257336000818152600960205260408120805460ff191660019081179091556008805491820181559091527ff3f7a9fe364faab93b216da50a3214154f22a0a2b415b23a84c8169e8b636ee30180546001600160a01b03191690911790555b336000908152600a602052604081208054349290610b1190849061147d565b925050819055503460076000828254610b2a919061147d565b909155505060405134815233907f4d154d4aae216bed6d0926db77c00df2b57c6b5ba4eee05775de20facede3a7b9060200160405180910390a2565b600d546001600160a01b03163314610b91576040516330cd747160e01b815260040160405180910390fd5b81471015610bb25760405163837d6bc760e01b815260040160405180910390fd5b60008054600181018255908052610bec907f290decd9548b62a8d60345a988386fc84ba6bc95484008f6362f93160ef3e5630185856110ea565b506001805480820182557fb10e2d527612073b26eecdfd717e6a320cf44b4afac2b0732d9fcbe2b7fa0cf601839055600280548083019091557f405787fa12a823e0f2b7631cc41b3ba8828b3321ca811111fa75cd3aa3bb5ace0180546001600160a01b0319166001600160a01b038416179055600680549182018155600052427ff652222313e28459528d920b65115c16c04f3efc82aaedc97be59f3f377c0d3f909101556040517f1a60227762a38b5661e3be943487ff14119d116a1bc9c8c903f2c7482b26cca990610cc8908690869086908690611527565b60405180910390a150505050565b60045460068281548110610cec57610cec611495565b9060005260206000200154610d01919061147d565b421115610d215760405163370ec37160e21b815260040160405180910390fd5b336000908152600b6020908152604080832084845290915290205460ff1615610d5d57604051637c9a1cf960e01b815260040160405180910390fd5b3360009081526009602052604090205460ff16610d8d57604051633ab272c160e01b815260040160405180910390fd5b336000818152600b602090815260408083208584528252808320805460ff19166001179055928252600a815282822054848352600c9091529181208054909190610dd890849061147d565b9091555050336000818152600a6020526040908190205490518392917f39d80faa89578c03fb0ead49da694b8fc6de2bb90282a80333ec379ebf36a68e91610e2291815260200190565b60405180910390a350565b600d546001600160a01b03163314610e58576040516330cd747160e01b815260040160405180910390fd5b821580610e63575081155b80610e6c575080155b15610e8a576040516308b0940360e21b815260040160405180910390fd5b610e94428461147d565b60035560049190915560055550565b336000908152600a6020526040902054811180610ebf57508047105b15610edd5760405163fe5a15ad60e01b815260040160405180910390fd5b336000908152600a602052604081208054839290610efc908490611466565b925050819055508060076000828254610f159190611466565b90915550506040513390819083156108fc029084906000818181858888f19350505050158015610f49573d6000803e3d6000fd5b5060405182815233907f1633a8ec68fcb27b9118aa3b4908ba8d41d0fc1a851503f1f154fde9fc2da82a9060200160405180910390a25050565b600854606090610fce5760405162461bcd60e51b81526020600482015260166024820152754e6f20696e766573746f727320617661696c61626c6560501b6044820152606401610892565b600880548060200260200160405190810160405280929190818152602001828054801561102457602002820191906000526020600020905b81546001600160a01b03168152600190910190602001808311611006575b5050505050905090565b6002818154811061080957600080fd5b6000818154811061104e57600080fd5b906000526020600020016000915090508054611069906114ec565b80601f0160208091040260200160405190810160405280929190818152602001828054611095906114ec565b80156110e25780601f106110b7576101008083540402835291602001916110e2565b820191906000526020600020905b8154815290600101906020018083116110c557829003601f168201915b505050505081565b8280546110f6906114ec565b90600052602060002090601f016020900481019282611118576000855561115e565b82601f106111315782800160ff1982351617855561115e565b8280016001018555821561115e579182015b8281111561115e578235825591602001919060010190611143565b5061116a92915061116e565b5090565b5b8082111561116a576000815560010161116f565b6001600160a01b038116811461119857600080fd5b50565b600080604083850312156111ae57600080fd5b8235915060208301356111c081611183565b809150509250929050565b6000602082840312156111dd57600080fd5b5035919050565b600080604083850312156111f757600080fd5b823561120281611183565b946020939093013593505050565b6000815180845260005b818110156112365760208185018101518683018201520161121a565b81811115611248576000602083870101525b50601f01601f19169290920160200192915050565b600081518084526020808501945080840160005b838110156112965781516001600160a01b031687529582019590820190600101611271565b509495945050505050565b6000606082016060835280865180835260808501915060808160051b8601019250602080890160005b838110156112f857607f198887030185526112e6868351611210565b955093820193908201906001016112ca565b50508584038187015287518085528882019482019350915060005b8281101561132f57845184529381019392810192600101611313565b5050508381036040850152611344818661125d565b979650505050505050565b60006020828403121561136157600080fd5b813561136c81611183565b9392505050565b6000806000806060858703121561138957600080fd5b843567ffffffffffffffff808211156113a157600080fd5b818701915087601f8301126113b557600080fd5b8135818111156113c457600080fd5b8860208285010111156113d657600080fd5b60209283019650945050850135915060408501356113f381611183565b939692955090935050565b60008060006060848603121561141357600080fd5b505081359360208301359350604090920135919050565b60208152600061136c602083018461125d565b60208152600061136c6020830184611210565b634e487b7160e01b600052601160045260246000fd5b60008282101561147857611478611450565b500390565b6000821982111561149057611490611450565b500190565b634e487b7160e01b600052603260045260246000fd5b60008160001904831182151516156114c5576114c5611450565b500290565b6000826114e757634e487b7160e01b600052601260045260246000fd5b500490565b600181811c9082168061150057607f821691505b6020821081141561152157634e487b7160e01b600052602260045260246000fd5b50919050565b60608152836060820152838560808301376000608085830181019190915260208201939093526001600160a01b03919091166040820152601f909201601f19169091010191905056fea264697066735822122027c3511fea1e50636da6a450fc90941242c5dc2b3e3d81c1785f9402f5bcd4cf64736f6c634300080a0033","linkReferences":{}},"methodIdentifiers":{"addrState(address)":"b9df9287","allInvestorsList()":"9435ad64","amounts(uint256)":"45f0a44f","balance(address)":"e3d670d7","contribution()":"50520b1f","contributionTimeEnd()":"afc8275b","createProposal(string,uint256,address)":"6ac1e01f","createTimes(uint256)":"2917707c","daoBalance()":"bd972816","descriptions(uint256)":"e6f859e7","executeProposal(uint256)":"0d61b519","getInvestorBalance(address)":"5ea63913","initializeDAO(uint256,uint256,uint256)":"861e1a30","investorList(uint256)":"12f9b48e","owner()":"8da5cb5b","proposalList()":"44389524","quorum()":"1703a018","recipients(uint256)":"d1bc76a1","redeemShare(uint256)":"868643df","transferShare(uint256,address)":"039383e6","voteNum(uint256)":"60f426c2","voteProposal(uint256)":"807896d5","voteState(address,uint256)":"1d3d7e33","voteTime()":"bcf93dd6"},"id":24}