{"abi":[{"type":"constructor","inputs":[{"name":"recipientAddress","type":"address","internalType":"address"}],"stateMutability":"nonpayable"},{"type":"function","name":"checkBalance","inputs":[],"outputs":[{"name":"","type":"uint256","internalType":"uint256"}],"stateMutability":"view"},{"type":"function","name":"closeChannel","inputs":[],"outputs":[],"stateMutability":"nonpayable"},{"type":"function","name":"deposit","inputs":[],"outputs":[],"stateMutability":"payable"},{"type":"function","name":"depositedAmount","inputs":[],"outputs":[{"name":"","type":"uint256","internalType":"uint256"}],"stateMutability":"view"},{"type":"function","name":"getAllPayments","inputs":[],"outputs":[{"name":"","type":"uint256[]","internalType":"uint256[]"}],"stateMutability":"view"},{"type":"function","name":"listPayment","inputs":[{"name":"amount","type":"uint256","internalType":"uint256"}],"outputs":[],"stateMutability":"nonpayable"},{"type":"function","name":"owner","inputs":[],"outputs":[{"name":"","type":"address","internalType":"address"}],"stateMutability":"view"},{"type":"function","name":"payments","inputs":[{"name":"","type":"uint256","internalType":"uint256"}],"outputs":[{"name":"","type":"uint256","internalType":"uint256"}],"stateMutability":"view"},{"type":"function","name":"recipient","inputs":[],"outputs":[{"name":"","type":"address","internalType":"address"}],"stateMutability":"view"},{"type":"event","name":"ChannelClosed","inputs":[{"name":"closer","type":"address","indexed":true,"internalType":"address"},{"name":"remainingAmount","type":"uint256","indexed":false,"internalType":"uint256"}],"anonymous":false},{"type":"event","name":"Deposit","inputs":[{"name":"sender","type":"address","indexed":true,"internalType":"address"},{"name":"amount","type":"uint256","indexed":false,"internalType":"uint256"}],"anonymous":false},{"type":"event","name":"PaymentListed","inputs":[{"name":"sender","type":"address","indexed":true,"internalType":"address"},{"name":"amount","type":"uint256","indexed":false,"internalType":"uint256"}],"anonymous":false}],"bytecode":{"object":"0x608060405234801561001057600080fd5b5060405161080e38038061080e83398101604081905261002f916100bc565b6001600160a01b0381166100895760405162461bcd60e51b815260206004820152601960248201527f496e76616c696420726563697069656e74206164647265737300000000000000604482015260640160405180910390fd5b60008054336001600160a01b031991821617909155600180549091166001600160a01b03929092169190911790556100ec565b6000602082840312156100ce57600080fd5b81516001600160a01b03811681146100e557600080fd5b9392505050565b610713806100fb6000396000f3fe6080604052600436106100865760003560e01c80638da5cb5b116100595780638da5cb5b1461012e578063b28aea561461014e578063c71daccb14610163578063d0e30db014610176578063f8defa3c1461017e57600080fd5b80631d01364c1461008b57806349c022ef146100b457806366d003ac146100d657806387d817891461010e575b600080fd5b34801561009757600080fd5b506100a160025481565b6040519081526020015b60405180910390f35b3480156100c057600080fd5b506100d46100cf36600461060a565b6101a0565b005b3480156100e257600080fd5b506001546100f6906001600160a01b031681565b6040516001600160a01b0390911681526020016100ab565b34801561011a57600080fd5b506100a161012936600461060a565b610347565b34801561013a57600080fd5b506000546100f6906001600160a01b031681565b34801561015a57600080fd5b506100d4610368565b34801561016f57600080fd5b50476100a1565b6100d46104b3565b34801561018a57600080fd5b50610193610560565b6040516100ab9190610623565b6000546001600160a01b031633146102105760405162461bcd60e51b815260206004820152602860248201527f4f6e6c7920746865206f776e65722063616e2063616c6c206c697374206f66206044820152677061796d656e747360c01b60648201526084015b60405180910390fd5b600081116102715760405162461bcd60e51b815260206004820152602860248201527f5061796d656e7420616d6f756e74206d7573742062652067726561746572207460448201526768656e207a65726f60c01b6064820152608401610207565b6002548111156102c35760405162461bcd60e51b815260206004820152601e60248201527f496e73756666696369656e742066756e647320666f72207061796d656e7400006044820152606401610207565b80600260008282546102d5919061067d565b9091555050600380546001810182556000919091527fc2575a0e9e593c00f959f8c92f12db2869c3395a3b0502d05e2516446f71f85b0181905560405181815233907f29fa607842a1de7e3c06cba72b3f4ca4d5a8daff6bdd86f4b60622a7987c2f759060200160405180910390a250565b6003818154811061035757600080fd5b600091825260209091200154905081565b6000546001600160a01b031633148061038b57506001546001600160a01b031633145b6103e95760405162461bcd60e51b815260206004820152602960248201527f4f6e6c79206f776e6572206f7220726563697069656e742063616e20636c6f73604482015268194818da185b9b995b60ba1b6064820152608401610207565b60006103f36105b8565b90506000610401824761067d565b90508115610445576001546040516001600160a01b039091169083156108fc029084906000818181858888f19350505050158015610443573d6000803e3d6000fd5b505b801561047a57604051339082156108fc029083906000818181858888f19350505050158015610478573d6000803e3d6000fd5b505b60405181815233907f770342ee36990141b5b1f4b3b41a184d7968647ac7f0dbfd2d86d566c468027d9060200160405180910390a25050565b600034116105125760405162461bcd60e51b815260206004820152602660248201527f4465706f7369742076616c75652073686f756c6420626520677265617465722060448201526507468656e20360d41b6064820152608401610207565b34600260008282546105249190610694565b909155505060405134815233907fe1fffcc4923d04b559f4d29a8bfc6cda04eb5b0d3c460751c2402c5c5cc9109c9060200160405180910390a2565b606060038054806020026020016040519081016040528092919081815260200182805480156105ae57602002820191906000526020600020905b81548152602001906001019080831161059a575b5050505050905090565b600080805b60035481101561060457600381815481106105da576105da6106ac565b9060005260206000200154826105f09190610694565b9150806105fc816106c2565b9150506105bd565b50919050565b60006020828403121561061c57600080fd5b5035919050565b6020808252825182820181905260009190848201906040850190845b8181101561065b5783518352928401929184019160010161063f565b50909695505050505050565b634e487b7160e01b600052601160045260246000fd5b60008282101561068f5761068f610667565b500390565b600082198211156106a7576106a7610667565b500190565b634e487b7160e01b600052603260045260246000fd5b60006000198214156106d6576106d6610667565b506001019056fea264697066735822122030607e4c355ec53a4070e9d9fb07a5500be76185ab9882914734053ada889a0a64736f6c634300080a0033","linkReferences":{}},"methodIdentifiers":{"checkBalance()":"c71daccb","closeChannel()":"b28aea56","deposit()":"d0e30db0","depositedAmount()":"1d01364c","getAllPayments()":"f8defa3c","listPayment(uint256)":"49c022ef","owner()":"8da5cb5b","payments(uint256)":"87d81789","recipient()":"66d003ac"},"id":23}