{"abi":[{"type":"constructor","inputs":[{"name":"_token","type":"address","internalType":"address"}],"stateMutability":"nonpayable"},{"type":"function","name":"claimInterest","inputs":[],"outputs":[],"stateMutability":"nonpayable"},{"type":"function","name":"clearAllStakes","inputs":[],"outputs":[],"stateMutability":"nonpayable"},{"type":"function","name":"getAccruedInterest","inputs":[{"name":"user","type":"address","internalType":"address"}],"outputs":[{"name":"","type":"uint256","internalType":"uint256"}],"stateMutability":"view"},{"type":"function","name":"getStakeHolder","inputs":[{"name":"index","type":"uint256","internalType":"uint256"}],"outputs":[{"name":"","type":"address","internalType":"address"}],"stateMutability":"view"},{"type":"function","name":"getStakeHoldersCount","inputs":[],"outputs":[{"name":"","type":"uint256","internalType":"uint256"}],"stateMutability":"view"},{"type":"function","name":"getStakeItem","inputs":[],"outputs":[{"name":"createdAt","type":"uint256","internalType":"uint256"},{"name":"stakedAmount","type":"uint256","internalType":"uint256"}],"stateMutability":"view"},{"type":"function","name":"owner","inputs":[],"outputs":[{"name":"","type":"address","internalType":"address"}],"stateMutability":"view"},{"type":"function","name":"redeem","inputs":[{"name":"amount","type":"uint256","internalType":"uint256"}],"outputs":[],"stateMutability":"nonpayable"},{"type":"function","name":"renounceOwnership","inputs":[],"outputs":[],"stateMutability":"nonpayable"},{"type":"function","name":"stake","inputs":[{"name":"amount","type":"uint256","internalType":"uint256"}],"outputs":[],"stateMutability":"nonpayable"},{"type":"function","name":"stakeHolders","inputs":[{"name":"","type":"uint256","internalType":"uint256"}],"outputs":[{"name":"","type":"address","internalType":"address"}],"stateMutability":"view"},{"type":"function","name":"stakes","inputs":[{"name":"","type":"address","internalType":"address"}],"outputs":[{"name":"createdAt","type":"uint256","internalType":"uint256"},{"name":"stakedAmount","type":"uint256","internalType":"uint256"}],"stateMutability":"view"},{"type":"function","name":"sweep","inputs":[],"outputs":[],"stateMutability":"nonpayable"},{"type":"function","name":"token","inputs":[],"outputs":[{"name":"","type":"address","internalType":"contract ERC20"}],"stateMutability":"view"},{"type":"function","name":"transferOwnership","inputs":[{"name":"newOwner","type":"address","internalType":"address"}],"outputs":[],"stateMutability":"nonpayable"},{"type":"event","name":"ClaimInterest","inputs":[{"name":"contributor","type":"address","indexed":true,"internalType":"address"},{"name":"rewards","type":"uint256","indexed":false,"internalType":"uint256"}],"anonymous":false},{"type":"event","name":"OwnershipTransferred","inputs":[{"name":"previousOwner","type":"address","indexed":true,"internalType":"address"},{"name":"newOwner","type":"address","indexed":true,"internalType":"address"}],"anonymous":false},{"type":"event","name":"Redeem","inputs":[{"name":"contributor","type":"address","indexed":true,"internalType":"address"},{"name":"amount","type":"uint256","indexed":false,"internalType":"uint256"}],"anonymous":false},{"type":"event","name":"StakeTokens","inputs":[{"name":"contributor","type":"address","indexed":true,"internalType":"address"},{"name":"amount","type":"uint256","indexed":false,"internalType":"uint256"}],"anonymous":false},{"type":"event","name":"Sweep","inputs":[{"name":"amount","type":"uint256","indexed":false,"internalType":"uint256"}],"anonymous":false},{"type":"error","name":"IndexOutOfBounds","inputs":[]},{"type":"error","name":"InsufficientOwnerBalance","inputs":[]},{"type":"error","name":"InsufficientRedeemAmount","inputs":[]},{"type":"error","name":"InsufficientTokenAllowance","inputs":[]},{"type":"error","name":"InsufficientTokenBalance","inputs":[]},{"type":"error","name":"NoContributionToReward","inputs":[]},{"type":"error","name":"NoStakedTokens","inputs":[]},{"type":"error","name":"OnlyOwnerFunctional","inputs":[]},{"type":"error","name":"OwnableInvalidOwner","inputs":[{"name":"owner","type":"address","internalType":"address"}]},{"type":"error","name":"OwnableUnauthorizedAccount","inputs":[{"name":"account","type":"address","internalType":"address"}]},{"type":"error","name":"RedeemAmountZero","inputs":[]},{"type":"error","name":"RewardTransferFailed","inputs":[]},{"type":"error","name":"StakingAmountZero","inputs":[]},{"type":"error","name":"TransferFailed","inputs":[]}],"bytecode":{"object":"0x608060405234801561001057600080fd5b50604051610fc6380380610fc683398101604081905261002f916100d4565b338061005557604051631e4fbdf760e01b81526000600482015260240160405180910390fd5b61005e81610084565b50600380546001600160a01b0319166001600160a01b0392909216919091179055610104565b600080546001600160a01b038381166001600160a01b0319831681178455604051919092169283917f8be0079c531659141344cd1fd0a4f28419497f9722a3daafe3b4186f6b6457e09190a35050565b6000602082840312156100e657600080fd5b81516001600160a01b03811681146100fd57600080fd5b9392505050565b610eb3806101136000396000f3fe608060405234801561001057600080fd5b50600436106100f55760003560e01c8063b622fa8511610097578063db006a7511610066578063db006a75146101ff578063f2fde38b14610212578063f99f55aa14610225578063fc0c546a1461023857600080fd5b8063b622fa85146101a0578063bbf14e74146101a8578063c6a0c668146101c9578063d24259f6146101d157600080fd5b8063715018a6116100d3578063715018a61461014d5780638da5cb5b14610155578063a694fc3a1461017a578063acad41a41461018d57600080fd5b806316934fc4146100fa57806335981fd81461013b57806335faa41614610145575b600080fd5b610121610108366004610d5f565b6001602081905260009182526040909120805491015482565b604080519283526020830191909152015b60405180910390f35b61014361024b565b005b61014361028c565b6101436103f2565b6000546001600160a01b03165b6040516001600160a01b039091168152602001610132565b610143610188366004610d88565b610406565b61016261019b366004610d88565b6106a2565b6101436106cc565b6101bb6101b6366004610d5f565b61073a565b604051908152602001610132565b6002546101bb565b6101213360009081526001602081815260409283902083518085019094528054808552920154920182905291565b61014361020d366004610d88565b6107a3565b610143610220366004610d5f565b6108f5565b610162610233366004610d88565b610935565b600354610162906001600160a01b031681565b336000908152600160208190526040822090810154909103610280576040516368fb6e7560e01b815260040160405180910390fd5b61028933610989565b50565b610294610b28565b6003546040516370a0823160e01b81523060048201526000916001600160a01b0316906370a0823190602401602060405180830381865afa1580156102dd573d6000803e3d6000fd5b505050506040513d601f19601f820116820180604052508101906103019190610da1565b905061030b6106cc565b6003546001600160a01b031663a9059cbb61032e6000546001600160a01b031690565b6040516001600160e01b031960e084901b1681526001600160a01b039091166004820152602481018490526044016020604051808303816000875af115801561037b573d6000803e3d6000fd5b505050506040513d601f19601f8201168201806040525081019061039f9190610dba565b6103bc576040516312171d8360e31b815260040160405180910390fd5b6040518181527ff2e5cfae4c990f32807a4db8277440db70d23f8157e11efeb28e0f8ed03b69929060200160405180910390a150565b6103fa610b28565b6104046000610b55565b565b806000036104275760405163711fa83160e01b815260040160405180910390fd5b6003546040516370a0823160e01b815233600482015282916001600160a01b0316906370a0823190602401602060405180830381865afa15801561046f573d6000803e3d6000fd5b505050506040513d601f19601f820116820180604052508101906104939190610da1565b10156104b257604051637222ae5760e11b815260040160405180910390fd5b600354604051636eb1769f60e11b815233600482015230602482015282916001600160a01b03169063dd62ed3e90604401602060405180830381865afa158015610500573d6000803e3d6000fd5b505050506040513d601f19601f820116820180604052508101906105249190610da1565b10156105435760405163a085b77b60e01b815260040160405180910390fd5b3360009081526001602081905260408220908101549091036105a257600280546001810182556000919091527f405787fa12a823e0f2b7631cc41b3ba8828b3321ca811111fa75cd3aa3bb5ace0180546001600160a01b031916331790555b6001810154156105b5576105b533610989565b6003546040516323b872dd60e01b8152336004820152306024820152604481018490526001600160a01b03909116906323b872dd906064016020604051808303816000875af115801561060c573d6000803e3d6000fd5b505050506040513d601f19601f820116820180604052508101906106309190610dba565b61064d576040516312171d8360e31b815260040160405180910390fd5b818160010160008282546106619190610df2565b909155505042815560405182815233907feb564dbda54c69318a29599b8551d044674ca4e3c47f3c0da3f4f253c90b17029060200160405180910390a25050565b600281815481106106b257600080fd5b6000918252602090912001546001600160a01b0316905081565b6106d4610b28565b60005b60025481101561072d576000600282815481106106f6576106f6610e05565b60009182526020808320909101546001600160a01b03168252600190819052604082208281558101919091559190910190506106d7565b5061040460026000610d2d565b6001600160a01b038116600090815260016020818152604080842081518083019092528054825290920154908201819052820361078a57604051637ed4d00960e01b815260040160405180910390fd5b61079c81602001518260000151610ba5565b9392505050565b806000036107c45760405163332ab29360e01b815260040160405180910390fd5b33600090815260016020819052604090912090810154808311156107fb57604051630397d7d760e11b815260040160405180910390fd5b8282600101600082825461080f9190610e1b565b909155505060018201546000036108295761082933610c2c565b60035460405163a9059cbb60e01b8152336004820152602481018590526001600160a01b039091169063a9059cbb906044016020604051808303816000875af115801561087a573d6000803e3d6000fd5b505050506040513d601f19601f8201168201806040525081019061089e9190610dba565b6108bb576040516312171d8360e31b815260040160405180910390fd5b60405183815233907f222838db2794d11532d940e8dec38ae307ed0b63cd97c233322e221f998767a69060200160405180910390a2505050565b6108fd610b28565b6001600160a01b03811661092c57604051631e4fbdf760e01b8152600060048201526024015b60405180910390fd5b61028981610b55565b60025460009082111561095b57604051634e23d03560e01b815260040160405180910390fd5b6002828154811061096e5761096e610e05565b6000918252602090912001546001600160a01b031692915050565b6001600160a01b038116600090815260016020819052604082209081015481549192916109b69190610ba5565b90508015610b21576003546040516370a0823160e01b815230600482015282916001600160a01b0316906370a0823190602401602060405180830381865afa158015610a06573d6000803e3d6000fd5b505050506040513d601f19601f82011682018060405250810190610a2a9190610da1565b1015610a495760405163f6e86ac560e01b815260040160405180910390fd5b60035460405163a9059cbb60e01b81526001600160a01b038581166004830152602482018490529091169063a9059cbb906044016020604051808303816000875af1158015610a9c573d6000803e3d6000fd5b505050506040513d601f19601f82011682018060405250810190610ac09190610dba565b610add5760405163078ecf4160e41b815260040160405180910390fd5b826001600160a01b03167fbbf701f67a7d285bbd2b9b2dc7a5fee474e6dc3c059183385da6cc9de2be34a982604051610b1891815260200190565b60405180910390a25b5042905550565b6000546001600160a01b031633146104045760405163118cdaa760e01b8152336004820152602401610923565b600080546001600160a01b038381166001600160a01b0319831681178455604051919092169283917f8be0079c531659141344cd1fd0a4f28419497f9722a3daafe3b4186f6b6457e09190a35050565b600080610bb28342610e1b565b905062015180811015610bc9576000915050610c26565b62093a80811015610bf3576064610be1856001610e2e565b610beb9190610e45565b915050610c26565b62278d00811015610c0b576064610be185600a610e2e565b6064610c18856032610e2e565b610c229190610e45565b9150505b92915050565b60005b600254811015610d2957816001600160a01b031660028281548110610c5657610c56610e05565b6000918252602090912001546001600160a01b031603610d215760028054610c8090600190610e1b565b81548110610c9057610c90610e05565b600091825260209091200154600280546001600160a01b039092169183908110610cbc57610cbc610e05565b9060005260206000200160006101000a8154816001600160a01b0302191690836001600160a01b031602179055506002805480610cfb57610cfb610e67565b600082815260209020810160001990810180546001600160a01b03191690550190555050565b600101610c2f565b5050565b508054600082559060005260206000209081019061028991905b80821115610d5b5760008155600101610d47565b5090565b600060208284031215610d7157600080fd5b81356001600160a01b038116811461079c57600080fd5b600060208284031215610d9a57600080fd5b5035919050565b600060208284031215610db357600080fd5b5051919050565b600060208284031215610dcc57600080fd5b8151801515811461079c57600080fd5b634e487b7160e01b600052601160045260246000fd5b80820180821115610c2657610c26610ddc565b634e487b7160e01b600052603260045260246000fd5b81810381811115610c2657610c26610ddc565b8082028115828204841417610c2657610c26610ddc565b600082610e6257634e487b7160e01b600052601260045260246000fd5b500490565b634e487b7160e01b600052603160045260246000fdfea26469706673582212203475a53bfef5d025c18ac945da65867f6e90985d0080bbc7c8bdd5ccabcb627e64736f6c634300081a0033","linkReferences":{}},"methodIdentifiers":{"claimInterest()":"35981fd8","clearAllStakes()":"b622fa85","getAccruedInterest(address)":"bbf14e74","getStakeHolder(uint256)":"f99f55aa","getStakeHoldersCount()":"c6a0c668","getStakeItem()":"d24259f6","owner()":"8da5cb5b","redeem(uint256)":"db006a75","renounceOwnership()":"715018a6","stake(uint256)":"a694fc3a","stakeHolders(uint256)":"acad41a4","stakes(address)":"16934fc4","sweep()":"35faa416","token()":"fc0c546a","transferOwnership(address)":"f2fde38b"},"id":29}